:09008B00007F027EC7DEFEDFFCEF
:010094002249
:10006600AD07AC06ED1D70011C144C600512008B2B
:0300760080F222F3
:03000300020016E2
:10001600C0E0C0D075D000C004C005C006C00775DA
:10002600A0007F647E00120066C2B2D007D006D060
:0800360005D004D0D0D0E03267
:0300130002003EAA
:10003E00C0E0C0D075D000C004C005C006C00775B2
:10004E00A0FF7F647E00120066C2B3D007D006D038
:08005E0005D004D0D0D0E0323F
:10007900D2AFD2A8C288D2AFD2AAC28AD2B2D2B3E0
:0200890080FAFB
:03000000020006F5
:0C000600787FE4F6D8FD758107020079D0
:00000001FF
