:020000040800F2
:1000000008040020050100085B01000853010008F6
:10001000570100084D01000811030008000000000E
:100020000000000000000000000000005F01000868
:1000300051010008000000005D0100087102000885
:100040001F0100081F0100081F0100081F01000810
:100050001F0100081F0100081F0100081F01000800
:100060001F0100081F0100081F0100081F010008F0
:100070001F0100081F0100081F0100081F010008E0
:100080001F0100081F0100081F0100081F010008D0
:100090001F0100081F0100081F0100081F010008C0
:1000A0001F0100081F0100081F0100081F010008B0
:1000B0001F0100081F0100081F0100081F010008A0
:1000C0001F0100081F0100081F0100081F01000890
:1000D0001F0100081F0100081F0100081F01000880
:1000E0001F0100081F0100081F010008DFF810D0E1
:1000F00000F01AF80048004733030008AFF300800F
:10010000080400200648804706480047FEE7FEE74F
:10011000FEE7FEE7FEE7FEE7FEE7FEE7FEE7FEE7B7
:10012000B1020008ED000008064C074D06E0E0684B
:1001300040F0010394E8070098471034AC42F6D32E
:10014000FFF7D8FF3C0300085C03000800BFFEE790
:10015000704700BFFEE700BFFEE77047704770477B
:1001600010B500F001F810BD0CB500200190009012
:100170003348006840F480303149086000BF30489F
:10018000006800F4003000900198401C0190009835
:1001900018B90198B0F5A06FF1D12948006800F4B2
:1001A000003010B10120009001E000200090009884
:1001B000012843D12348006840F01000214908601D
:1001C0000846006820F0030008600846006840F018
:1001D000020008601A4840681949486008464068AB
:1001E00048600846406840F48060486008464068BF
:1001F00020F47C1048600846406840F4E8104860ED
:100200000846006840F08070086000BF0C48006835
:1002100000F000700028F9D00948406820F0030081
:10022000074948600846406840F00200486000BF47
:100230000348406800F00C000828F9D10CBD00000C
:100240000010024000200240042808D14FF0E021B5
:10025000096941F004014FF0E022116107E04FF01D
:10026000E021096921F004014FF0E022116170479B
:100270007047000010B504466FF00400FFF7E4FF7C
:10028000E11704EB5171C1F3C701074A1170104621
:10029000007800EB4001C1EBC0104FF6FF7101EA9E
:1002A000C0000249088010BD0000002002000020AC
:1002B00010B51348006840F0010011490860084675
:1002C0004068104908400E494860084600680E49D9
:1002D00008400B4908600846006820F48020086048
:1002E0000846406820F4FE0048604FF41F00886014
:1002F000FFF736FF4FF000600449086010BD0000B2
:10030000001002400000FFF8FFFFF6FE08ED00E0DD
:1003100000BFFEE702E008C8121F08C1002AFAD198
:1003200070477047002001E001C1121F002AFBD175
:1003300070474820FFF79EFF00BFFEE75C03000800
:1003400000000020040000001403000860030008FF
:100350000400002004040000240300080000000042
:04000005080000ED02
:00000001FF
