:0104080022D1
:100308007E007C077DD01203688E438F44E5441538
:0F03180044AE43700215434E600512039380EE0E
:0103270022B3
:10039300C2A57F197E001203B6D2A57F197E000283
:0203A30003B69F
:1001790007320030151210042407398082848688DA
:020189008A8C5E
:1002DD00E4FD7F8E12027BE4F54774392547F8E67D
:1002ED00FF74322547F8E6FD12027B0547E547C34B
:0B02FD00940740E67D807F8E02027BAC
:10032800E4F54774392547F8E64401FF12012C74B7
:0F033800322547F8A6070547E547C3940740E479
:010347002293
:10027B00C2B500C2B600D2B500E4FEEF1392B4EFE4
:10028B00C313FFD2B600C2B6000EBE08EEE4FEEDFD
:10029B001392B4EDC313FDD2B600C2B6000EBE0866
:0402AB00EEC2B500EA
:0102AF00222C
:10012C00E4FEFDC2B500C2B600D2B500FBEF1392DF
:10013C00B4EFC313FFD2B600EBC394075003C2B69F
:10014C00000BBB08E8E4FBC2B600A2B4E433FDA884
:10015C0003088002C333D8FC4206D2B6000BBB089E
:0C016C00E6D2B600C2B400D2B400AF0668
:010178002264
:0104090022D0
:0201FF008F402F
:10020100E4F541F542F541E5405401F542E540C3CD
:1002110013F540E542600FC2B70000D2B77F067EFA
:10022100001203B6800DC2B77F067E001203B6D25C
:0C023100B700000541E541C3940840CB34
:01023D00229E
:1002B000E4F545FFF546F545120348EFC433333303
:1002C00054804246E545C394075006E546C313F5FE
:0C02D000460545E545C3940840DEAF46F6
:0102DC0022FF
:1001BD00E4F549C2B77F32FE1203B6D2B77F027E95
:1001CD00001203B630B7110549E549D39419400320
:1001DD007F012212040C80ECE4F54920B71105498A
:1001ED00E549D3941940037F012212040C80EC7F62
:0101FD000001
:0101FE0022DE
:10034800E4F54AC2B70000D2B7000030B705754AD5
:0F035800018003E4F54A7F067E001203B6AF4A28
:010367002273
:01040A0022CF
:10023E00E4F54B30B10930B00630B20320B31F7F66
:10024E00027E0012038020B103754B0820B00375A7
:10025E004B0420B203754B0220B303754B0130B132
:0C026E00FD30B0FA30B2F730B3F4AF4B03
:01027A002261
:10018B001808FF03D0FF03D7FF03DEFF03E5FF03D0
:10019B00ECFF03F3FF03FAFF040112203F065B4F52
:0E01AB00666D7D077F6F777C395E797180000D
:01040B0022CE
:0703D000D2A4D2A3D2A222A5
:0703D700D2A4D2A3C2A222AE
:0703DE00D2A4C2A3D2A222A7
:0703E500D2A4C2A3C2A222B0
:0703EC00C2A4D2A3D2A22299
:0703F300C2A4D2A3C2A222A2
:0703FA00C2A4C2A3D2A2229B
:07040100C2A4C2A3C2A222A3
:0301B900014C00F6
:1003A5001202DD12040B12040A1203281200038044
:0103B500F84F
:10000300E4F547F548F547F548E54875F003A424BA
:1000130008F808E6FA08E6F912037A0548C37402F9
:1000230095472432F8E6C4540F2420F8E6F5807F80
:10003300027E00120380E4F580E54875F003A424F2
:1000430008F808E6FA08E6F912037A0548C37402C9
:1000530095472432F8E6540F2420F8E6F5807F0212
:100063007E00120380E4F580E548C394075021E540
:100073004875F003A42408F808E6FA08E6F9120321
:100083007A05487580407F027E00120380E4F58084
:0C0093000547E547C39403500302000C2E
:01009F00223E
:01040C0022CD
:1003B600EF1FAC0670011E4C600512040C80F12282
:0903C600007F027EC7DEFEDFFCB1
:0103CF00220B
:10038000AD07AC06ED1D70011C144C60051203C6D0
:0303900080F222D6
:030000000200A05B
:0C00A000787FE4F6D8FD75814C0200E783
:10036800EF8DF0A4A8F0CF8CF0A428CE8DF0A42EA9
:02037800FE2263
:06037A008A838982E4730E
:1000AC000203A5E493A3F8E493A34003F68001F2C2
:1000BC0008DFF48029E493A3F85407240CC8C33355
:1000CC00C4540F4420C8834004F456800146F6DF24
:1000DC00E4800B0102040810204080900179E47E3A
:1000EC00019360BCA3FF543F30E509541FFEE49319
:1000FC00A360010ECF54C025E060A840B8E493A3E0
:10010C00FAE493A3F8E493A3C8C582C8CAC583CA0A
:10011C00F0A3C8C582C8CAC583CADFE9DEE780BEC2
:0101BC000042
:00000001FF
