:01122E00229D
:101070007E007C077DD0120820AC06AD07E4120686
:10108000457B667A6679E6783F1205A312067E8E66
:101090003C8F3DE53D153DAE3C7002153C4E600574
:0510A0001211C780EEF3
:0110A5002228
:1011C700C2A57F197E001211D9D2A57F197E000210
:0211D70011D92C
:100D6800075400000001010120075B808284868807
:020D78008A8C63
:10110800E4FD7F8E1210A6E4F53C745B253CF8E6FE
:10111800FF7454253CF8E6FD1210A6053CE53CC3D7
:0B112800940740E67D807F8E0210A639
:10115800E4F54B745B254BF8E64401FF120F657408
:0F11680054254BF8A607054BE54BC3940740E40D
:011177002255
:1010A600C2B500C2B600D2B500E4FEEF1392B4EFAB
:1010B600C313FFD2B600C2B6000EBE08EEE4FEEDC4
:1010C6001392B4EDC313FDD2B600C2B6000EBE082D
:0410D600EEC2B500B1
:0110DA0022F3
:100F6500E4FEFDC2B500C2B600D2B500FBEF139298
:100F7500B4EFC313FFD2B600EBC394075003C2B658
:100F8500000BBB08E8E4FBC2B600A2B4E433FDA83D
:100F950003088002C333D8FC4206D2B6000BBB0857
:0C0FA500E6D2B600C2B400D2B400AF0621
:010FB100221D
:01122F00229C
:020FF4008F412B
:100FF600E4F542F543F542E5415401F543E541C3C5
:1010060013F541E543600FC2B70000D2B77F067EF5
:10101600001211D9800DC2B77F067E001211D9D2F7
:0C102600B700000542E542C3940840CB2F
:01103200229B
:1010DB00E4F541FFF542F541121178EFC433333398
:1010EB0054804242E541C394075006E542C313F5D1
:0C10FB00420541E541C3940840DEAF42CD
:0111070022C5
:100FB200E4F541C2B77F32FE1211D9D2B77F027E69
:100FC200001211D930B7110541E541D394194003FC
:100FD2007F012212123280ECE4F54120B711054163
:100FE200E541D3941940037F012212123280EC7F33
:010FF20000FE
:010FF30022DB
:10117800E4F543C2B70000D2B7000030B7057543A5
:0F118800018003E4F5437F067E001211D9AF43C7
:011197002235
:01123000229B
:10103300E4F54B30B10930B00630B20320B31F7F63
:10104300027E001211B420B103754B0820B0037562
:101053004B0420B203754B0220B303754B0130B12F
:0C106300FD30B0FA30B2F730B3F4AF4B00
:01106F00225E
:100D7A001808FF11F3FF11FAFF1201FF1208FF1200
:100D8A000FFF1216FF121DFF122413203F065B4F9E
:0F0D9A00666D7D077F6F777C395E7971800040D1
:01123100229A
:060E1D008B4B8A4C894D4D
:100E23008B518A528953D3854F83855082E55395DD
:100E330082E55295835036C3E553954D75F003A46F
:100E43002408F808E6FA08E6F91208F9AB51AA52A1
:100E5300A9531207F52420F8E6F5801211E9E4F509
:0D0E630080042553F553E43552F55280B953
:010E7000225F
:0711F300D2A4D2A3D2A22274
:0711FA00D2A4D2A3C2A2227D
:07120100D2A4C2A3D2A22275
:07120800D2A4C2A3C2A2227E
:07120F00C2A4D2A3D2A22267
:07121600C2A4D2A3C2A22270
:07121D00C2A4C2A3D2A22269
:07122400C2A4C2A3C2A22272
:03122B0002122F7D
:060DC8008B3C8A3D893ED0
:100DCE00E4F53FF540120FB27FCC120FF47F4412C0
:100DDE000FF41211E9120FB27FCC120FF47FBE1274
:100DEE000FF41210DBAB3CAA3DA93EE48FF01208C3
:100DFE00B21210DB753F008F40AB3CAA3DA93E12EC
:0F0E0E000887FDE54045F0FFEDCF8FF00208B2F9
:1011330000000000000000000000000000000000AC
:10114300000000000000000000000000000000009C
:05115300000000000097
:100DA900016A00016B00016300016500016900012E
:0E0DB900640001620001671401660101680117
:100BA800E4F533F534F535F539F538F537F536F537
:100BB8003AF53B12122E121231121230121108128B
:100BC800122B1210338F3AE53A146013146008247C
:100BD800FA700F053B800B120003121108800312F4
:100BE80009231211587B007A007933120DC8753F1A
:100BF80000754000754136754200754300754435EF
:100C08007B007A007933120F15E53B75F003848574
:100C1800F03BE53B14600C14600E2402701B120EAE
:100C2800C38016120E718011AF39AE38AD37AC36AD
:0E0C3800853540120C46E4F535121198808483
:080C46008F3F8E3E8D3D8C3C7A
:100C4E00E4FBFA7920784112049A8F3F8E3E8D3D57
:100C5E008C3C12067E8E418F42E4F54378447C0034
:100C6E00FD7BFF7A117933FE7F051207CF7B03E5FB
:100C7E004060057544128003754411E5424541609C
:100C8E0027AE41AF427C007D0A1208328D43AE4141
:100C9E00AF427C007D0A1208328E418F42AF031B99
:100CAE0074442FF8A64380D375480C754E00754FCB
:100CBE00007550487B007A007944120E1DAA0FA9C8
:0D0CCE00101208F98530801211E9E4F5805C
:010CDB0022F6
:100E7100783C7C007D007BFF7A1179387E007F0809
:100E81001207CFE55AC4540FF53CE55A540FF53D0E
:100E9100753E12E558C4540FF53FE558540FF5401F
:100EA100754112E557C4540FF542E557540FF54308
:100EB100754E00754F007550437B007A00793C02F6
:020EC1000E1D04
:100EC300783C7C007D007BFF7A1179407E007F08AF
:100ED3001207CFE556C4540FF53CE556540FF53DC4
:100EE300753E12E555C4540FF53FE555540FF540D3
:100EF300754112E554C4540FF542E554540FF543BC
:100F0300754E00754F007550437B007A00793C02A3
:020F13000E1DB1
:10119800E5656017E554B56A12E555B56B0DE5567A
:0C11A800B56308E4F5657F0212107022A8
:10092300E4F53CF53DF53EF53FF54078417C00FDAF
:100933007BFF7A117948FE7F081207CFE4F549F56A
:100943004AF54AE53D6003020AE1E54075F00A8491
:10095300F541E54075F00A8485F042754312E53FA1
:1009630075F00A84F544E53F75F00A8485F0457512
:100973004612E53E75F00A84F547E53E75F00A84B4
:1009830085F048E54A7045754907AF491549EF6059
:1009930014754E00754F007550487B007A007941FD
:1009A300120E1D80E5754711754811754907AF494A
:1009B3001549EF7003020A59754E00754F007550C3
:1009C300487B007A007941120E1D80E2E54A6401FA
:1009D3007042754907AF491549EF6014754E0075AC
:1009E3004F007550487B007A007941120E1D80E557
:1009F300754411754511754907AF491549EF60569F
:100A0300754E00754F007550487B007A007941128E
:100A13000E1D80E5754907AF491549EF6014754E02
:100A230000754F007550487B007A007941120E1D06
:100A330080E5754111754211754907AF491549EFB5
:100A43006014754E00754F007550487B007A00792D
:100A530041120E1D80E51210338F3CE53C24FE60ED
:100A63004724FE600D24FC6003020946753D010224
:100A73000946E54A700FE53EC3943B40030209462D
:100A8300053E020946E54AB4010FE53FC3943B40E6
:100A930003020946053F020946E540C3943B400370
:100AA3000209460540020946E54A700FE53ED39424
:100AB300005003020946153E020946E54AB4010FF8
:100AC300E53FD394005003020946153F020946E56A
:100AD30040D3940050030209461540020946E4F549
:100AE3003D054AE54AC3940350030209467565016F
:100AF300121158E556C4540F75F00AA4FFE5565475
:100B03000F2FF563E555C4540F75F00AA4FFE5559F
:100B1300540F2FF56BE554C4540F75F00AA4FFE589
:100B230054540F2FF56AE5402563F563E53F256BC4
:100B3300F56BE53E256AF56A75F03C84256BF56B2C
:100B4300E56A75F03C8485F06AE56B75F03C8425B5
:100B530063F563E56B75F03C8485F06BE56375F0D5
:100B6300188485F063E56B75F00A84C454F0FFE5DF
:100B73006B75F00A84E5F02FF56BE56375F00A8475
:100B8300C454F0FFE56375F00A84E5F02FF563E5DF
:100B93006A75F00A84C454F0FFE56A75F00A84E5C7
:040BA300F02FF56AD0
:010BA700222B
:10000300E4F53C783D7C00FD7BFF7A117950FE7F5F
:10001300081207CFE4F545F546E546C394064003C9
:1000230002041BE546C394034003020142E56775DE
:10003300F00A84F53DE56775F00A8485F03E753F67
:1000430012E56675F00A84F540E56675F00A848565
:10005300F041754212E56875F00A84F543E5687569
:10006300F00A8485F044E5467045754507AF4515AC
:1000730045EF6014754E00754F007550447B007A50
:1000830000793D120E1D80E5753D11753E117545D4
:1000930007AF451545EF7003020319754E00754F01
:1000A300007550447B007A00793D120E1D80E2E515
:1000B3004664017045754507AF451545EF601475F6
:1000C3004E00754F007550447B007A00793D120E47
:1000D3001D80E5754011754111754507AF451545FF
:1000E300EF7003020319754E00754F007550447B82
:1000F300007A00793D120E1D80E2754507AF451564
:1001030045EF6014754E00754F007550447B007ABF
:1001130000793D120E1D80E5754311754411754537
:1001230007AF451545EF7003020319754E00754F70
:10013300007550447B007A00793D120E1D80E2E584
:100143006975F00A84F53DE56975F00A8485F03E2A
:10015300753F12E56475F00A84F540E56475F00AAD
:100163008485F041754212E56275F00A84F543E532
:100173006275F00A8485F044E54664036003020275
:1001830009754507AF451545EF6034754E00754F4A
:10019300007550447B007A00793D120E1DAA0FA909
:1001A300101208F98530801211E9E4F580AA18A924
:1001B300191208F98530801211E9E4F58080C575BC
:1001C3003D11753E11754507AF451545EF700302A7
:1001D3000319754E00754F007550447B007A007902
:1001E3003D120E1DAA0FA9101208F98530801211B5
:1001F300E9E4F580AA18A9191208F98530801211CB
:10020300E9E4F58080C2E546640460030202977561
:100213004507AF451545EF6034754E00754F0075C2
:1002230050447B007A00793D120E1DAA0FA91012CB
:1002330008F98530801211E9E4F580AA18A919128A
:1002430008F98530801211E9E4F58080C575401105
:10025300754111754507AF451545EF700302031945
:10026300754E00754F007550447B007A00793D123E
:100273000E1DAA0FA9101208F98530801211E9E4A6
:10028300F580AA18A9191208F98530801211E9E43A
:10029300F58080C2754507AF451545EF6034754E4F
:1002A30000754F007550447B007A00793D120E1D96
:1002B300AA0FA9101208F98530801211E9E4F5801C
:1002C300AA18A9191208F98530801211E9E4F580FA
:1002D30080C5754311754411754507AF451545EF45
:1002E3006034754E00754F007550447B007A007979
:1002F3003D120E1DAA0FA9101208F98530801211A4
:10030300E9E4F580AA18A9191208F98530801211B9
:10031300E9E4F58080C51210338F3CE53C24FE7080
:10032300030203A924FE600C24FC600302001C05E5
:100333004602001CE546700FE567C3946340030261
:10034300001C056702001CE546B4010FE566C39473
:100353000C400302001C056602001CE546B4020FB4
:10036300E568C3941F400302001C056802001CE5F6
:1003730046B4030FE569C39417400302001C0569E3
:1003830002001CE546B4040FE564C3943B4003023A
:10039300001C056402001CE562C3943B4003020099
:1003A3001C056202001CE546700FE567D3941450E8
:1003B3000302001C156702001CE546B4010FE56645
:1003C300D39401500302001C156602001CE546B4D9
:1003D300020FE568D39401500302001C1568020064
:1003E3001CE546B4030FE569D39400500302001CD7
:1003F300156902001CE546B4040FE564D39400506C
:100403000302001C156402001CE562D39400500330
:1004130002001C156202001CE56275F00A84C454D4
:10042300F0FFE56275F00A84E5F02FF554E5647595
:10043300F00A84C454F0FFE56475F00A84E5F02FF4
:10044300F555E56975F00A84C454F0FFE56975F064
:100453000A84E5F02FF556E56875F00A84C454F074
:10046300FFE56875F00A84E5F02FF557E56675F04A
:100473000A84C454F0FFE56675F00A84E5F02FF5AD
:1004830058E56775F00A84C454F0FFE56775F00A10
:0604930084E5F02FF55A8C
:010499002240
:100F15008B3C8A3D893E120887FFAEF0EE54F8609F
:100F25001CEFF4FFEEF4FEEF2401FFE43E8FF01218
:100F350008B2AB42AA43A944740112080EAB3CAAFD
:100F45003DA93E120887FDACF0E4120645E4FBFA24
:100F55007980783D12049AAB3FAA40A9410208DF87
:011232002299
:1011D900EF1FAC0670011E4C600512123280F1221D
:0911E900007F027EC7DEFEDFFC80
:0111F20022DA
:1011B400AD07AC06ED1D70011C144C60051211E95D
:0311C40080F22294
:10049A00EC4D6011E8497017ED33EC3304600DE45C
:1004AA00FCFFFEFD22E933E8330470F80206EA1283
:1004BA0006B558046009E4CC248150062850090284
:1004CA0006F42840030206F1C0E0EB4A7044B98002
:1004DA0006D0E0FB0206E0EF4E701CBD8008EBFF81
:1004EA00EAFEE9FD80EBE98DF0A4FEE5F002058362
:1004FA00E9CDF9EAFEEBFFEF89F0A4FCE5F0CE893D
:10050A00F0A42EFFE435F0CD89F0A42DFEE435F0F9
:10051A008067EF4E7005BD80D780C3EF8BF0A4AC27
:10052A00F0EE8BF0A42CFCE435F0F8EF8AF0A42C62
:10053A00E5F038FCE433CB8DF0A42CFCE5F03BF875
:10054A00EE8AF0A42CFCE5F038F8E433CF89F0A465
:10055A002CFCE5F038CF3400CE89F0A42FFFE5F06B
:10056A003EFEE433C98DF0A42EFEE5F039CD8AF0C3
:10057A00A42FFFE5F03EFEE43DFD33D0E0FB50073B
:10058A000BBB000F0206F4EC2CFCEF33FFEE33FE3C
:06059A00ED33FD0206CC6A
:1005A0000206F4EC5D046005E8590470030206EAF3
:1005B0001206B5580460F6EC4860F2EC7004FDFEDB
:1005C000FF22C860DB2481C85009C398600250062E
:1005D0000206F19850CAF582E9294B4A7005AB82B0
:1005E0000206E075F0007C1A7880C3EF9BEE9AED6E
:1005F00099400DC3EF9BFFEE9AFEED99FDE842F0A6
:10060000DC23ACF0D0E0FFD0E0FED0E0FDAB8220F8
:10061000E7101BEB60BAEC2CFCEF33FFEE33FEED82
:1006200033FD0206CCE803F830E705C0F075F000B2
:10063000EF2FFFEE33FEED33FD40B830E7C280AA66
:1006400075F020800E75F010800575F0087D007E35
:10065000007F003392D530D5031208D1EC3340101F
:10066000EF33FFEE33FEED33FDEC33FCD5F0ED223E
:0E067000E5F0247EA2D513CC92E7CDCEFF227A
:10067E00EDD2E7CD33EC3392D524814006E4FFFE74
:10068E00FDFC22FCE4CFCECDCC24E0501174FF80D3
:10069E00EDC3CC13CCCD13CDCE13CECF13CF047070
:0706AE00F030D5DE0208D197
:1006B500E9D2E7C933E833F892D5EDD2E7CD33EC8B
:0706C50033FC5002B2D52204
:1006CC00EC30E7100FBF000C0EBE00080DBD00048F
:1006DC000BEB6014A2D5EB13FCED92E7FD2274FF3B
:1006EC00FCFDFEFF22E480F8A2D574FF13FC7D8094
:0306FC00E480EFA8
:03000000020CDC13
:0C0CDC00787FE4F6D8FD75816B020D23D3
:1006FF00E709F608DFFA8046E709F208DFFA803EDD
:10070F0088828C83E709F0A3DFFA8032E309F608C9
:10071F00DFFA8078E309F208DFFA807088828C8331
:10072F00E309F0A3DFFA806489828A83E0A3F608E5
:10073F00DFFA805889828A83E0A3F208DFFA804CBF
:10074F0080D280FA80C680D4806980F28033801096
:10075F0080A680EA809A80A880DA80E280CA8033FF
:10076F0089828A83ECFAE493A3C8C582C8CCC58377
:10077F00CCF0A3C8C582C8CCC583CCDFE9DEE78047
:10078F000D89828A83E493A3F608DFF9ECFAA9F0C6
:10079F00EDFB2289828A83ECFAE0A3C8C582C8CC1C
:1007AF00C583CCF0A3C8C582C8CCC583CCDFEADE35
:1007BF00E880DB89828A83E493A3F208DFF980CC97
:1007CF0088F0EF60010E4E60C388F0ED2402B40490
:1007DF000050B9F582EB2402B4040050AF23234537
:0607EF00822390074F7306
:1007F500BB010689828A83E0225002E722BBFE0202
:09080500E32289828A83E4932234
:10080E00BB010689828A83F0225002F722BBFE01C9
:02081E00F322C3
:10082000EF8DF0A4A8F0CF8CF0A428CE8DF0A42EEC
:02083000FE22A6
:10083200BC000BBE0029EF8DF084FFADF022E4CCAA
:10084200F875F008EF2FFFEE33FEEC33FCEE9DEC73
:10085200984005FCEE9DFE0FD5F0E9E4CEFD22EDB9
:10086200F8F5F0EE8420D21CFEADF075F008EF2F03
:10087200FFED33FD4007985006D5F0F222C398FDF4
:050882000FD5F0EA2291
:10088700BB010A89828A83E0F5F0A3E0225006873C
:10089700F009E71922BBFE07E3F5F009E3192289FE
:0B08A700828A83E493F5F07401932231
:1008B200BB010A89828A83F0E5F0A3F0225006F791
:0F08C20009A7F01922BBFE06F3E5F009F319228E
:0E08D100C3E49FFFE49EFEE49DFDE49CFC2238
:1008DF00BB010789828A8302090B5005E9F80208D8
:0A08EF00FFBBFE05E9F8020917221D
:0608F9008A838982E4738A
:100CE800020BA8E493A3F8E493A34003F68001F26F
:100CF80008DFF48029E493A3F85407240CC8C3330D
:100D0800C4540F4420C8834004F456800146F6DFDB
:100D1800E4800B0102040810204080900D68E47EF6
:100D2800019360BCA3FF543F30E509541FFEE493D0
:100D3800A360010ECF54C025E060A840B8E493A397
:100D4800FAE493A3F8E493A3C8C582C8CAC583CAC2
:100D5800F0A3C8C582C8CAC583CADFE9DEE780BE7A
:010DC700002B
:0C08FF00ECF608EDF608EEF608EFF62225
:0C090B00ECF0A3EDF0A3EEF0A3EFF0225F
:0C091700ECF208EDF208EEF208EFF2221C
:00000001FF
