:10008F000208000020330A000000000000000000FA
:10009F000000000000000000000000000000000051
:1000AF000000000000000000000000000000000041
:1000BF0000000000000000000000013D00013E00B4
:10010800AF99E50820E71420E60BAE3D053D740ADB
:0B0118002EF8A60722BF0A0343088050
:0101230022B9
:1001240043878075985053890F438920758BFA75DE
:0B0134008DFAC2ABD28ED2ACD2AF224B
:1000D000E4FF120124E53E60FCE4FFD3E53D6480CB
:1000E000F8EF648098501C740A2FF8E6F59930995F
:1000F000FDC299740A2FF8E4F6EFB53D03E4F53D2F
:080100000F80D8E4F53E80CD2C
:03000000020003F8
:0C000300787FE4F6D8FD75813E02004ACB
:10000F000200D0E493A3F8E493A34003F68001F237
:10001F0008DFF48029E493A3F85407240CC8C333F2
:10002F00C4540F4420C8834004F456800146F6DFC1
:10003F00E4800B010204081020408090008FE47EC2
:10004F00019360BCA3FF543F30E509541FFEE493B6
:10005F00A360010ECF54C025E060A840B8E493A37D
:10006F00FAE493A3F8E493A3C8C582C8CAC583CAA8
:10007F00F0A3C8C582C8CAC583CADFE9DEE780BE60
:0100CF000030
:00000001FF
