:0603500004420000000061
:0903B200D288D2A8D2AFD2B22247
:03000300020006F2
:10000600C0E0C0F0C083C082C0D075D000C000C0C0
:0D00160001C002C003C004C005C006C00741
:100023007532007533007534037535E830B2030259
:10003300010E20B21AE53545346014E535153570E7
:100043000215341203FCE535453470E602010E3027
:10005300B2237534017535F430B21AE53545346091
:1000630014E5351535700215341203FCE5354534B6
:1000730070E602010E75320074422532F87600757F
:10008300330075340075353C20B219E535453460CD
:1000930013E5351535700215341203FCE535453487
:1000A30070E6806775340075351430B217E5351581
:1000B30035700215347F0A7E00120398E535453406
:1000C30070E88047C3E5359408E5349400501A740A
:1000D300422532F8C000E6FFAE33A806740108805B
:1000E30002C333D8FC4FD000F60533E533C394087D
:1000F30040900532E532C39404500302007BE5458A
:0B010300F4654460067544007545007B
:10010E00D007D006D005D004D003D002D001D00045
:0B011E00D0D0D082D083D0F0D0E032EF
:100356001808FF03C3FF03CAFF03D1FF03D8FF0337
:10036600DFFF03E6FF03EDFF03F412203F065B4FBA
:0E037600666D7D077F6F777C395E7971800040
:0703C300D2A4D2A3D2A222B2
:0703CA00D2A4D2A3C2A222BB
:0703D100D2A4C2A3D2A222B4
:0703D800D2A4C2A3C2A222BD
:0703DF00C2A4D2A3D2A222A6
:0703E600C2A4D2A3C2A222AF
:0703ED00C2A4C2A3D2A222A8
:0703F400C2A4C2A3C2A222B1
:0103FB0022DF
:1002CA00E4F53E8B3F8A408941AB3FAA40A94112DF
:1002DA00021F6032AF3E053EEF75F003A42408F812
:1002EA0008E6FA08E6F9120238AB3FAA40A9411219
:1002FA00021FF5801203A8E4F580042541F541E4C4
:06030A003540F54080C300
:0103100022CA
:0803BB0000000000000000003A
:1003110078367C007D007BFF7A0379BB7E007F0805
:100321001201F91203B21203FBE544C4540F242055
:10033100F8E6F536E544540F2420F8E6F537853024
:0F034100387B007A0079361202CA1203A880DADC
:0103FC0022DE
:10039800EF1FAC0670011E4C60051203FC80F122B1
:0903A800007F027EC7DEFEDFFCCF
:0103B1002229
:10038500AD07AC06ED1D70011C144C60051203A8E9
:0303950080F222D1
:0300000002023EBB
:0C023E00787FE4F6D8FD7581450202854A
:10012900E709F608DFFA8046E709F208DFFA803EB8
:1001390088828C83E709F0A3DFFA8032E309F608A5
:10014900DFFA8078E309F208DFFA807088828C830D
:10015900E309F0A3DFFA806489828A83E0A3F608C1
:10016900DFFA805889828A83E0A3F208DFFA804C9B
:1001790080D280FA80C680D4806980F28033801072
:1001890080A680EA809A80A880DA80E280CA8033DB
:1001990089828A83ECFAE493A3C8C582C8CCC58353
:1001A900CCF0A3C8C582C8CCC583CCDFE9DEE78023
:1001B9000D89828A83E493A3F608DFF9ECFAA9F0A2
:1001C900EDFB2289828A83ECFAE0A3C8C582C8CCF8
:1001D900C583CCF0A3C8C582C8CCC583CCDFEADE11
:1001E900E880DB89828A83E493A3F208DFF980CC73
:1001F90088F0EF60010E4E60C388F0ED2402B4046C
:100209000050B9F582EB2402B4040050AF23234512
:06021900822390017973BD
:10021F00BB010689828A83E0225002E722BBFE02DD
:09022F00E32289828A83E4932210
:060238008A838982E47351
:10024A00020311E493A3F8E493A34003F68001F2B6
:10025A0008DFF48029E493A3F85407240CC8C333B5
:10026A00C4540F4420C8834004F456800146F6DF84
:10027A00E4800B0102040810204080900350E47EC1
:10028A00019360BCA3FF543F30E509541FFEE49379
:10029A00A360010ECF54C025E060A840B8E493A340
:1002AA00FAE493A3F8E493A3C8C582C8CAC583CA6B
:1002BA00F0A3C8C582C8CAC583CADFE9DEE780BE23
:010384000078
:00000001FF
