:100609001808FF06B2FF06B9FF06C0FF06C7FF06B6
:10061900CEFF06D5FF06DCFF06E312203F065B4F3F
:0E062900666D7D077F6F777C395E797100808A
:0106ED0022EA
:0706B200D2A4D2A3D2A222C0
:0706B900D2A4D2A3C2A222C9
:0706C000D2A4C2A3D2A222C2
:0706C700D2A4C2A3C2A222CB
:0706CE00C2A4D2A3D2A222B4
:0706D500C2A4D2A3C2A222BD
:0706DC00C2A4C2A3D2A222B6
:0706E300C2A4C2A3C2A222BF
:0106EE0022E9
:060533008B398A3A893B76
:10053900E4F53CF53D1205887FCC1205CA7F4412CB
:1005490005CA1206A81205887FCC1205CA7FBE12F9
:1005590005CA120638AB39AA3AA93BE48FF012034F
:100569003E120638753C008F3DAB39AA3AA93B12B9
:0F0579000313FDE53D45F0FFEDCF8FF002033E8C
:0106EF0022E8
:0205CA008F3E62
:1005CC00E4F53FF540F53FE53E5401F540E53EC30B
:1005DC0013F53EE540600FC2B70000D2B77F067E30
:1005EC0000120698800DC2B77F067E00120698D2C4
:0C05FC00B70000053FE53FC3940840CB6A
:0106080022CF
:10063800E4F53EFFF53FF53E120665EFC43333336C
:100648005480423FE53EC394075006E53FC313F587
:0C0658003F053EE53EC3940840DEAF3F86
:010664002273
:10058800E4F53EC2B77F32FE120698D2B77F027EEC
:100598000012069830B711053EE53ED39419400382
:1005A8007F01221206F080ECE4F53E20B711053EEB
:1005B800E53ED3941940037F01221206F080EC7FB8
:0105C8000032
:0105C900220F
:10066500E4F540C2B70000D2B7000030B7057540C9
:0F067500018003E4F5407F067E00120698AF4037
:010684002253
:0106F00022E7
:10069800EF1FAC0670011E4C60051206F080F122B7
:0906A800007F027EC7DEFEDFFCCC
:0106B1002226
:10068500AD07AC06ED1D70011C144C60051206A8E3
:0306950080F222CE
:0306EA000000000D
:080371008F3C8E3B8D3A8C3964
:10037900E4FBFA792078411200038F3C8E3B8D3AD9
:100389008C391201478E3E8F3FE4F54078417C005D
:10039900FD7BFF7A0679EAFE7F0312029875440213
:1003A900E53F453E6028AE3EAF3F7C007D0A120224
:1003B900BE8D40AE3EAF3F7C007D0A1202BE8E3E2E
:1003C9008F3FAF44154474412FF8A64080D2E4F51D
:1003D90044F544E53D6014AA09A90A12036B758026
:1003E900407F027E00120685E4F580E54475F0033E
:1003F900A4240BF808E6FA08E6F912036B74412500
:1004090044F8E62420F8E6F5807F027E001206858E
:10041900E4F580E544B4011D75F003A4240BF80844
:10042900E6FA08E6F912036B8531807F027E001235
:100439000685E4F5800544C3E544648094834093CC
:010449002290
:1004D600E4F532F533F534F538F537F536F53512FA
:1004E60006ED1206EE7B007A007932120533E5320C
:1004F60054F86014E533F4FFE532F4FEEF2401F519
:1005060033E43EF532753401AC32AD33E412010EFC
:10051600E4FBFA7980783D1200038F388E378D36EA
:0D0526008C3585343D120371E4F53480B846
:10000300EC4D6011E8497017ED33EC3304600DE4F7
:10001300FCFFFEFD22E933E8330470F80201B3125A
:10002300017E58046009E4CC24815006285009025B
:1000330001BD2840030201BAC0E0EB4A7044B98015
:1000430006D0E0FB0201A9EF4E701CBD8008EBFF58
:10005300EAFEE9FD80EBE98DF0A4FEE5F00200EC99
:10006300E9CDF9EAFEEBFFEF89F0A4FCE5F0CE89D8
:10007300F0A42EFFE435F0CD89F0A42DFEE435F095
:100083008067EF4E7005BD80D780C3EF8BF0A4ACC3
:10009300F0EE8BF0A42CFCE435F0F8EF8AF0A42CFE
:1000A300E5F038FCE433CB8DF0A42CFCE5F03BF811
:1000B300EE8AF0A42CFCE5F038F8E433CF89F0A401
:1000C3002CFCE5F038CF3400CE89F0A42FFFE5F007
:1000D3003EFEE433C98DF0A42EFEE5F039CD8AF05F
:1000E300A42FFFE5F03EFEE43DFD33D0E0FB5007D7
:1000F3000BBB000F0201BDEC2CFCEF33FFEE33FE14
:06010300ED33FD02019541
:1001090075F020800E75F010800575F0087D007E71
:10011900007F003392D530D50312035DEC334010D4
:10012900EF33FFEE33FEED33FDEC33FCD5F0ED227A
:0E013900E5F0247EA2D513CC92E7CDCEFF22B6
:10014700EDD2E7CD33EC3392D524814006E4FFFEB0
:10015700FDFC22FCE4CFCECDCC24E0501174FF800F
:10016700EDC3CC13CCCD13CDCE13CECF13CF0470AC
:07017700F030D5DE02035D4C
:10017E00E9D2E7C933E833F892D5EDD2E7CD33ECC7
:07018E0033FC5002B2D52240
:10019500EC30E7100FBF000C0EBE00080DBD0004CB
:1001A5000BEB6014A2D5EB13FCED92E7FD2274FF77
:1001B500FCFDFEFF22E480F8A2D574FF13FC7D80D0
:0301C500E480EFE4
:0300000002044AAD
:0C044A00787FE4F6D8FD7581440204912F
:1001C800E709F608DFFA8046E709F208DFFA803E19
:1001D80088828C83E709F0A3DFFA8032E309F60806
:1001E800DFFA8078E309F208DFFA807088828C836E
:1001F800E309F0A3DFFA806489828A83E0A3F60822
:10020800DFFA805889828A83E0A3F208DFFA804CFB
:1002180080D280FA80C680D4806980F280338010D2
:1002280080A680EA809A80A880DA80E280CA80333B
:1002380089828A83ECFAE493A3C8C582C8CCC583B3
:10024800CCF0A3C8C582C8CCC583CCDFE9DEE78083
:100258000D89828A83E493A3F608DFF9ECFAA9F002
:10026800EDFB2289828A83ECFAE0A3C8C582C8CC58
:10027800C583CCF0A3C8C582C8CCC583CCDFEADE71
:10028800E880DB89828A83E493A3F208DFF980CCD3
:1002980088F0EF60010E4E60C388F0ED2402B404CC
:1002A8000050B9F582EB2402B4040050AF23234573
:0602B8008223900218737E
:1002BE00BC000BBE0029EF8DF084FFADF022E4CC24
:1002CE00F875F008EF2FFFEE33FEEC33FCEE9DECED
:1002DE00984005FCEE9DFE0FD5F0E9E4CEFD22ED33
:1002EE00F8F5F0EE8420D21CFEADF075F008EF2F7D
:1002FE00FFED33FD4007985006D5F0F222C398FD6E
:05030E000FD5F0EA220A
:10031300BB010A89828A83E0F5F0A3E022500687B5
:10032300F009E71922BBFE07E3F5F009E319228977
:0B033300828A83E493F5F074019322AA
:10033E00BB010A89828A83F0E5F0A3F0225006F70A
:0F034E0009A7F01922BBFE06F3E5F009F3192207
:0E035D00C3E49FFFE49EFEE49DFDE49CFC22B1
:06036B008A838982E4731D
:100456000204D6E493A3F8E493A34003F68001F2E2
:1004660008DFF48029E493A3F85407240CC8C333A7
:10047600C4540F4420C8834004F456800146F6DF76
:10048600E4800B0102040810204080900609E47EF7
:10049600019360BCA3FF543F30E509541FFEE4936B
:1004A600A360010ECF54C025E060A840B8E493A332
:1004B600FAE493A3F8E493A3C8C582C8CAC583CA5D
:1004C600F0A3C8C582C8CAC583CADFE9DEE780BE15
:0106370000C2
:00000001FF
