:100608001808FF06B1FF06B8FF06BFFF06C6FF06BB
:10061800CDFF06D4FF06DBFF06E212203F065B4F44
:0E062800666D7D077F6F777C395E797100808B
:0106EC0022EB
:0706B100D2A4D2A3D2A222C1
:0706B800D2A4D2A3C2A222CA
:0706BF00D2A4C2A3D2A222C3
:0706C600D2A4C2A3C2A222CC
:0706CD00C2A4D2A3D2A222B5
:0706D400C2A4D2A3C2A222BE
:0706DB00C2A4C2A3D2A222B7
:0706E200C2A4C2A3C2A222C0
:0106ED0022EA
:060532008B398A3A893B77
:10053800E4F53CF53D1205877FCC1205C97F4412CE
:1005480005C91206A71205877FCC1205C97FBE12FE
:1005580005C9120637AB39AA3AA93BE48FF0120352
:100568003E120637753C008F3DAB39AA3AA93B12BB
:0F0578000313FDE53D45F0FFEDCF8FF002033E8D
:0106EE0022E9
:0205C9008F3E63
:1005CB00E4F53FF540F53FE53E5401F540E53EC30C
:1005DB0013F53EE540600FC2B70000D2B77F067E31
:1005EB0000120697800DC2B77F067E00120697D2C7
:0C05FB00B70000053FE53FC3940840CB6B
:0106070022D0
:10063700E4F53EFFF53FF53E120664EFC43333336E
:100647005480423FE53EC394075006E53FC313F588
:0C0657003F053EE53EC3940840DEAF3F87
:010663002274
:10058700E4F53EC2B77F32FE120697D2B77F027EEE
:100597000012069730B711053EE53ED39419400384
:1005A7007F01221206EF80ECE4F53E20B711053EED
:1005B700E53ED3941940037F01221206EF80EC7FBA
:0105C7000033
:0105C8002210
:10066400E4F540C2B70000D2B7000030B7057540CA
:0F067400018003E4F5407F067E00120697AF4039
:010683002254
:0106EF0022E8
:10069700EF1FAC0670011E4C60051206EF80F122B9
:0906A700007F027EC7DEFEDFFCCD
:0106B0002227
:10068400AD07AC06ED1D70011C144C60051206A7E5
:0306940080F222CF
:0306E9000000000E
:080371008F3C8E3B8D3A8C3964
:10037900E4FBFA792078411200038F3C8E3B8D3AD9
:100389008C391201478E3E8F3FE4F54078417C005D
:10039900FD7BFF7A0679E9FE7F0312029875440214
:1003A900E53F453E6028AE3EAF3F7C007D0A120224
:1003B900BE8D40AE3EAF3F7C007D0A1202BE8E3E2E
:1003C9008F3FAF44154474412FF8A64080D2E4F51D
:1003D90044F544E53D6014AA09A90A12036B758026
:1003E900407F027E00120684E4F580E54475F0033F
:1003F900A4240BF808E6FA08E6F912036B74412500
:1004090044F8E62420F8E6F5807F027E001206848F
:10041900E4F580E544B4011D75F003A4240BF80844
:10042900E6FA08E6F912036B8531807F027E001235
:100439000684E4F5800544C3E544648094834093CD
:010449002290
:1004D600E4F532F533F534F538F537F536F53512FA
:1004E60006EC1206ED7B007A007932120532E5320F
:1004F60030E414E533F4FFE532F4FEEF2401F5337E
:10050600E43EF532753401AC32AD33E412010EE44B
:10051600FBFA7980783D1200038F388E378D368C42
:0C0526003585343D120371E4F53480B9D2
:10000300EC4D6011E8497017ED33EC3304600DE4F7
:10001300FCFFFEFD22E933E8330470F80201B3125A
:10002300017E58046009E4CC24815006285009025B
:1000330001BD2840030201BAC0E0EB4A7044B98015
:1000430006D0E0FB0201A9EF4E701CBD8008EBFF58
:10005300EAFEE9FD80EBE98DF0A4FEE5F00200EC99
:10006300E9CDF9EAFEEBFFEF89F0A4FCE5F0CE89D8
:10007300F0A42EFFE435F0CD89F0A42DFEE435F095
:100083008067EF4E7005BD80D780C3EF8BF0A4ACC3
:10009300F0EE8BF0A42CFCE435F0F8EF8AF0A42CFE
:1000A300E5F038FCE433CB8DF0A42CFCE5F03BF811
:1000B300EE8AF0A42CFCE5F038F8E433CF89F0A401
:1000C3002CFCE5F038CF3400CE89F0A42FFFE5F007
:1000D3003EFEE433C98DF0A42EFEE5F039CD8AF05F
:1000E300A42FFFE5F03EFEE43DFD33D0E0FB5007D7
:1000F3000BBB000F0201BDEC2CFCEF33FFEE33FE14
:06010300ED33FD02019541
:1001090075F020800E75F010800575F0087D007E71
:10011900007F003392D530D50312035DEC334010D4
:10012900EF33FFEE33FEED33FDEC33FCD5F0ED227A
:0E013900E5F0247EA2D513CC92E7CDCEFF22B6
:10014700EDD2E7CD33EC3392D524814006E4FFFEB0
:10015700FDFC22FCE4CFCECDCC24E0501174FF800F
:10016700EDC3CC13CCCD13CDCE13CECF13CF0470AC
:07017700F030D5DE02035D4C
:10017E00E9D2E7C933E833F892D5EDD2E7CD33ECC7
:07018E0033FC5002B2D52240
:10019500EC30E7100FBF000C0EBE00080DBD0004CB
:1001A5000BEB6014A2D5EB13FCED92E7FD2274FF77
:1001B500FCFDFEFF22E480F8A2D574FF13FC7D80D0
:0301C500E480EFE4
:0300000002044AAD
:0C044A00787FE4F6D8FD7581440204912F
:1001C800E709F608DFFA8046E709F208DFFA803E19
:1001D80088828C83E709F0A3DFFA8032E309F60806
:1001E800DFFA8078E309F208DFFA807088828C836E
:1001F800E309F0A3DFFA806489828A83E0A3F60822
:10020800DFFA805889828A83E0A3F208DFFA804CFB
:1002180080D280FA80C680D4806980F280338010D2
:1002280080A680EA809A80A880DA80E280CA80333B
:1002380089828A83ECFAE493A3C8C582C8CCC583B3
:10024800CCF0A3C8C582C8CCC583CCDFE9DEE78083
:100258000D89828A83E493A3F608DFF9ECFAA9F002
:10026800EDFB2289828A83ECFAE0A3C8C582C8CC58
:10027800C583CCF0A3C8C582C8CCC583CCDFEADE71
:10028800E880DB89828A83E493A3F208DFF980CCD3
:1002980088F0EF60010E4E60C388F0ED2402B404CC
:1002A8000050B9F582EB2402B4040050AF23234573
:0602B8008223900218737E
:1002BE00BC000BBE0029EF8DF084FFADF022E4CC24
:1002CE00F875F008EF2FFFEE33FEEC33FCEE9DECED
:1002DE00984005FCEE9DFE0FD5F0E9E4CEFD22ED33
:1002EE00F8F5F0EE8420D21CFEADF075F008EF2F7D
:1002FE00FFED33FD4007985006D5F0F222C398FD6E
:05030E000FD5F0EA220A
:10031300BB010A89828A83E0F5F0A3E022500687B5
:10032300F009E71922BBFE07E3F5F009E319228977
:0B033300828A83E493F5F074019322AA
:10033E00BB010A89828A83F0E5F0A3F0225006F70A
:0F034E0009A7F01922BBFE06F3E5F009F3192207
:0E035D00C3E49FFFE49EFEE49DFDE49CFC22B1
:06036B008A838982E4731D
:100456000204D6E493A3F8E493A34003F68001F2E2
:1004660008DFF48029E493A3F85407240CC8C333A7
:10047600C4540F4420C8834004F456800146F6DF76
:10048600E4800B0102040810204080900608E47EF8
:10049600019360BCA3FF543F30E509541FFEE4936B
:1004A600A360010ECF54C025E060A840B8E493A332
:1004B600FAE493A3F8E493A3C8C582C8CAC583CA5D
:1004C600F0A3C8C582C8CAC583CADFE9DEE780BE15
:0106360000C3
:00000001FF
