:0C122100D2A0D2A1121264C2A102126479
:0C122D00D2A0C2A1121264D2A10212646D
:10116F00E4F51CD2A012126430A117051CAF1CEFBE
:10117F003395E0FED3EF94C8EE6480948040E97F0E
:09118F000122C2A01212647F00CB
:011198002234
:1011E100C2A0D2A1121264C2A1121264D2A0021230
:0111F1006499
:0F121200C2A0121264D2A1121264D2A0021264FE
:021057008F1CEC
:10105900E4F51DC2A0121264E4F51DE51CC41313C6
:101069001354011392A1D2A0121264C2A0121264E5
:10107900E51C25E0F51C051DC3E51D648094884029
:08108900DAD2A0D2A102126428
:10109100E4F51EF51FF51FD2A012126430A1047FE2
:1010A1000180027F00EF421EC3E51F6480948750D8
:1010B10006E51E25E0F51EC2A0121264051FC3E558
:0910C1001F6480948840D0AF1E2A
:0110CA002203
:011263002268
:101105008F1B1212217F7812105712116FEF600397
:101115007F01227F8012105712116FEF60037F014C
:1011250022AF1B12105712116FEF60037F012212BD
:05113500122D7F0022D5
:1011BA001212217F7812105712116FEF60037F010C
:0411CA00227F00225E
:0312570002122D53
:101199008F137FC012105712116FEF60037F012266
:1011A900AF1312105712116FEF60037F01227F00F6
:0111B9002213
:10113A008F1B1212217F7812105712116FEF600362
:10114A007F01227FC012105712116FEF60037F01D7
:10115A0022AF1B12105712116FEF60037F01221288
:05116A00122D7F0022A0
:1000030000000000000000000000000000000000ED
:10001300000000000000F8330000000000000000B2
:10002300000010000C00020010000C000200000091
:1000330000004004C03F78044004C03F780400003F
:100043000000701888208820FCFF0821301E000063
:10005300F0000831F00C8003601E1821001E000020
:10006300001EF0210823882C70190027002100109E
:10007300000012000E00000000000000000000005D
:10008300000000000000E0071818042002400000F0
:100093000000024004201818E007000000000000E0
:1000A300400240028001F00F800140024002000044
:1000B3000000000100010001E00F00010001000148
:1000C300000000900070000000000000000000002D
:1000D3000000000100010001000100010001000017
:1000E30000000030003000000000000000000000AD
:1000F3000000006000180007C00038000400000082
:100103000000E00F1010082008201010E00F00007E
:100113000000000010201020F83F00200020000005
:10012300000070300828082408220821F03000005D
:10013300000030180820082108218822701C0000C4
:1001430000000006800540243024F83F00240024EA
:100153000000F8198820882088200811080E000064
:100163000000E00F1011882088209020001F00005D
:10017300000018000800083E88016800180000000D
:100183000000701C8822082108218822701C0000AE
:100193000000F0010812082208221011E00F0000ED
:1001A300000000000000C030C0300000000000006C
:1001B30000000000000080E00000000000000000DC
:1001C30000000001800240042008101008200000F5
:1001D3000000400240024002400240024002000090
:1001E30000000820101020084004800200010000D5
:1001F30000007000480008300837880070000000D5
:10020300C0073018C8272828E82F1028E017000057
:100213000020003CC0233802E00200270038002001
:100223000820F83F8820882088207011000E0000E5
:10023300C0073018082008200820081038080000DC
:100243000820F83F0820082008201010E00F0000C5
:100253000820F83F88208820E82308201018000091
:100263000820F83F88208800E803080010000000F9
:10027300C0073018082008200822381E000200009A
:100283000820F83F0821000100010821F83F082059
:10029300000008200820F83F082008200000000084
:1002A30000C0008008800880F87F08000800000074
:1002B3000820F83F8820C0012826183808200000AD
:1002C3000820F83F08200020002000200030000014
:1002D3000820F83FF801003EF801F83F082000002D
:1002E3000820F83F3020C00000070818F83F080036
:1002F300E00F10100820082008201010E00F000065
:100303000820F83F0821080108010801F000000057
:10031300E00F10100828082808301050E04F0000A4
:100323000820F83F882088008803880C703000205C
:10033300000070388820082108210822381C00009A
:10034300180008000820F83F0820080018000000E3
:100353000800F81F0820002000200820F81F0800CC
:100363000800780088070038000EC801380008002C
:100373000800F803003EF801003EF80308000000FF
:1003830008201830682C80038003682C183008205C
:1003930008003800C820003FC820380008000000CB
:1003A3001020083808260821C82038200818000023
:1003B300000000000000FE7F0240024002400000F7
:1003C300000004003800C0010006003800C000002F
:1003D3000000024002400240FE7F000000000000D7
:1003E30000000000040002000200040000000000FE
:1003F30000800080008000800080008000800080FA
:1004030000000200020004000000000000000000E1
:1004130000000019802480248012003F0020000087
:100423001000F03F0011802080200011000E00001A
:100433000000000E001180208020802000110000A9
:100443000000001F8020802080209010F03F0020BB
:100453000000001F802480248024802400170000D3
:10046300000080208020E03F9020902020000000AA
:100473000000006B809480948094809380600000DF
:100483001020F03F0021800080008020003F0020EA
:10049300000080209820983F0020002000000000EA
:1004A300000000C0008080809880987F00000000DA
:1004B3001020F03F002400068029803080200000B7
:1004C300000010201020F83F002000200000000052
:1004D3008020803F80208000803F80208000003F7C
:1004E3008020803F0021800080008020003F00208A
:1004F3000000001F8020802080208020001F00003B
:10050300808080FF0091802080200011000E000079
:100513000000000E001180208020009180FF0080E9
:1005230080208020803F0021802080008001000007
:10053300000000338024802480248024801900005C
:10054300000080008000E01F802080200010000059
:100553008000801F0020002000208010803F0020AA
:1005630080008003800C0030800C8003800000003A
:100573008001800E0030800C8007003880068001E7
:10058300000080208031800E002E8031802000000A
:1005930080008081808600780018800680018000BA
:1005A300000080218030802C802280218030000058
:1005B30000000000000000000001FC3E0240024079
:1005C3000000000000000000FFFF0000000000002A
:1005D30002400240FC3E0001000000000000000059
:1005E30000000200010002000200040002000000FB
:1005F300E5A4A90000000008080808080808F8F89E
:1006030008080808080C0C08000000000004040493
:1006130004040404C4FC7F0F3CF4C404040406066D
:10062300060400000040602030180C07030100009E
:10063300000003070E1C3870702000E78E8B00004B
:10064300001010101010101010F0F0F01010101017
:1006530010181810000000000000101010101010E7
:1006630010FFFFFF101010101010100000000020EA
:100673002020202020202020203F3F3F202020201A
:10068300202020202000E88081000000000020209E
:10069300202020FEFEFE202020E0E0783818000015
:1006A300000002020202020282E2E263331B1E8E98
:1006B300C7C3E2624202020200000404060203010D
:1006C300013F7F6642434141404040407E7E2000DF
:1006D30000E5AD90000000000808080808080808B5
:1006E300088888C868381818080000000008080837
:1006F30008080808080808FFFFFF08080808080892
:100703000C0C080000000000000000101030607F97
:100713007F3F00000000000000000000E5A4A940A6
:10072300404242424242FEFE4242424242404080F6
:1007330080C060301C0F03030F1C3060C08080003A
:1007430000000000000000000000000000000000A6
:100753000000000000000000000000000000000096
:1007630000000000000000E78E8B0002828282827C
:1007730082FEFE82828282820200404040404040EC
:10078300407F7F4040404040404000000000000068
:100793000000000000000000000000000000000056
:1007A3000000000000000000000000000000000046
:1007B3000000E88081202024242424BFFF64343CEB
:1007C3002C2622202010180C063F7F454446424227
:1007D30043797800000000000000000000000000E2
:1007E3000000000000000000000000000000000006
:1007F30000000000000000000000000000E5AD90D4
:1008030080828282828282E2E2B29A8E86828080B3
:10081300000000000040C0FF7F0000000000000057
:1008230000000000000000000000000000000000C5
:1008330000000000000000000000000000000000B5
:080843000000000000000000AD
:100E91007FAE1212547FD51212547F801212547FEA
:100EA100A81212547F3F1212547FD3121254E4FF3E
:100EB1001212547F401212547F8D1212547F141259
:100EC10012547F201212547F021212547FA1121267
:100ED100547FC81212547FDA1212547F1212125424
:100EE1007F811212547FEF1212547FD91212547F54
:100EF100F11212547FDB1212547F301212547FA46C
:0D0F01001212547FA61212547FAF02125438
:1010CB00E4F508F509F508E50824B0FF1212547F82
:1010DB0010121254E4FF12125412125AE4F509E4DE
:1010EB00FF1211FF0509E509C3948040F212125D4E
:0910FB000508E508C3940840CE85
:0111040022C8
:060F68008B088A09890ACA
:100F6E00E4F50BF50CF50BE50B24B0FF1212547FD4
:100F7E0010121254E4FF12125412125AE4F50CAB72
:100F8E0008AA09A90A120FBBFF1211FF7401250A44
:100F9E00F50AE43509F509050CE50CC3948040DF2C
:0C0FAE0012125D050BE50BC3940840BB5C
:010FBA002214
:060C76008F088D098B0AB6
:100C7C00E50AF5F0A4AEF07803CEC313CE13D8F981
:100C8C00F50E85090FE4F510F511F512F513850B2A
:100C9C0014850C15850D16E50A7F048F17E50A7B64
:100CAC00FFB410067A07791F80047A0579F38B1844
:100CBC008A19891AE508D394804003020E01E509CC
:100CCC0094084003020E01E5154516451470030205
:100CDC000E01AB14AA15A916120FBB7003020E015C
:100CEC00C37480950AFFE508D39F4003020E01E50B
:100CFC0009943E4003020E01E508540FF512E50875
:100D0C00C4540FF513E4F511E511C3951740030214
:100D1C000DF3AB18AA19A91A75F04BE511A4F582BD
:100D2C0085F083120FD4FFAB14AA15A916120FBBB2
:100D3C006F6003020DEEE51175F04BA4FFAEF0AB46
:100D4C0018251AF9E5193EFA900001120FD4FDABE3
:100D5C0014AA15A916900001120FD46D6003020D90
:100D6C00EEAB18E51A2FF9E5193EFA900002120FB6
:100D7C00D4FFAB14AA15A916900002120FD46F70F1
:100D8C0061850F09F510E510C3950E504DE51085E2
:100D9C000AF084E5F07018AF090509EF44B0FF12B2
:100DAC001254E5134410FF121254AF12121254E5F0
:100DBC001175F04BA4AB18251AF9E51935F0FAE9C1
:100DCC002403F9E43AFA7E00E92510F9EE3AFA1216
:100DDC000FBBFF121260051080ACE50A2508F50860
:100DEC0080050511020D1474032516F516E435154E
:050DFC00F515020CDEFC
:010E010022CE
:04100D008F088D09B2
:101011008B0A8A0B890CE508D394805038E5099432
:10102100085032EA494B602DAB0AAA0BA90C120FEA
:10103100BBFB6021E508D39480501AAD09AF0812BB
:101041000E0274082508F5087401250CF50CE43529
:051051000BF50B80D33C
:011056002277
:020E02008D0D54
:100E0400750E10E4F50FF510F511EB24E0F512EF73
:100E1400540FF510EFC4540FF511E50D44B0FF1253
:100E2400125412124FAF1012125412125AE4F50F48
:100E3400E50EC313FFE50FC39F501575F010E512BF
:100E4400A42403F582E5F034001211F2050F80E0CA
:100E540012125DE50D0444B0FF12125412124FAF8A
:100E64001012125412125AE4F50FE50EC313FFE5E3
:100E74000FC39F501575F010E512A42404F582E504
:0D0E8400F034001211F2050F80E002125D43
:05124F00E5114410FF51
:031254000211057F
:03125A000211BAC4
:03125D0002125723
:0D11F200F58375F002E50F121001E493FF84
:0311FF0002119941
:0312600002113A3E
:011264002267
:10120200EF1FAC0670011E4C600512126480F122C1
:09124500007F027EC7DEFEDFFC23
:01124E00227D
:1011CE00AD07AC06ED1D70011C144C6005121245E6
:0311DE0080F2227A
:10084B00E5A4A9E78E8BE88081E5AD900074696122
:10085B006E77616E676C616F7A692E005449414EF9
:10086B0057414E474C414F5A492E000000000000A3
:10087B00000000000000000000000000000000006D
:10088B00000040000000000000000000000000001D
:10089B000000000000FCFFFFFF7E7C78F0C0000032
:1008AB0000000000000000000080E0F0787E7EFF7A
:1008BB00FFFFF80000000000000000000000000037
:1008CB00000000000000000000000000000000001D
:1008DB00000000000000000000000000000000000D
:1008EB0000000000000000000000000000000000FD
:1008FB0000000000000000000000000000000000ED
:10090B0000000000000000000000000000000000DC
:10091B000000000000071F7FF0C0800001FFFFF800
:10092B008080808080808080FCFFDF010080E0F889
:10093B007F1F01000000000000000000000000000D
:10094B00000000000000000000000000000000009C
:10095B00000000000000000000000000000000008C
:10096B00000000000000000000000000000000007C
:10097B00000000000000000000000000000000006C
:10098B00000000000000000000000000000000005C
:10099B0000000000000080E0F17F3F0F0F07030312
:1009AB0003010101010101030303070E0F3F7BF15B
:1009BB00C00000000000000000000000000000006C
:1009CB00000000000000000000000000000000001C
:1009DB00000000000000000000000000000000000C
:1009EB0000000000000000000000000000000000FC
:1009FB0000000000000000000000000000000000EC
:100A0B0000000000000000000000000000000000DB
:100A1B00000000000000FFFF01000000000000606C
:100A2B00E070303030307070E0C000000000000328
:100A3B00FFFF00000080C0E0E06060E0C0C080808D
:100A4B00800000000000000000000000000000001B
:100A5B00000000000000000000000000000000008B
:100A6B00000000000000000000000000000000007B
:100A7B00000000000000000000000000000000006B
:100A8B00000000000000000000000000000000005B
:100A9B00000000000000FFFF000000000000003815
:100AAB00381C0C0C0C0C0C1C38300080C0E0F0789F
:100ABB003F1F1E0F07030301000000008081C1C10F
:100ACB00E3E377763E3C1C1C0000000000000000B6
:100ADB00000000000000000000000000000000000B
:100AEB0000000000000000000000000000000000FB
:100AFB0000000000000000000000000000000000EB
:100B0B0000000000000000000000000000000000DA
:100B1B00000000000080FFFF00000000000000004C
:100B2B0000000000000000000000000101010303B1
:100B3B001F0E06000000808080CECFCFFFFB7971A7
:100B4B00702000000000000000000000000000000A
:100B5B00000000000000000000000000000000008A
:100B6B00000000000000000000000000000000007A
:100B7B00000000000000000000000000000000006A
:100B8B00000000000000000000000000000000005A
:100B9B0000000000FEFFFF0100000000000000004D
:100BAB000000C0C0E0E0E07070703838181C1C0CFE
:100BBB000EFEFEFF0703030301010100000000000E
:100BCB00000000000000000000000000000000001A
:100BDB00000000000000000000000000000000000A
:100BEB0000000000000000000000000000000000FA
:100BFB0000000000000000000000000000000000EA
:100C0B000000000000000000000000000000C0C059
:100C1B0080C080C0C107CFCEFCF8F8D8F8F8181800
:100C2B0018181818181818181878F8F8D8F8F87C35
:100C3B001E0F070000000000000000000000000075
:100C4B000000000000000000000000000000000099
:100C5B000000000000000000000000000000000089
:0B0C6B0000000000000000000000007E
:100F0E00120E917FC87E001211CE1210CB7BFF7A8B
:100F1E00087976120F681210CB750BFF750C0875D9
:100F2E000D4B7B18E4FDFF120C76750BFF750C084C
:100F3E00750D4B7B107D05E4FF120C761210CB7BEA
:100F4E00FF7A087958E4FDFF12100D7BFF7A0879BD
:0A0F5E00677D03E4FF12100D80B060
:03000000021239B0
:0C123900787FE4F6D8FD75811F020F0ECF
:100FBB00BB010689828A83E0225002E722BBFE0234
:090FCB00E32289828A83E4932267
:100FD400BB010CE58229F582E5833AF583E02250D2
:100FE40006E92582F8E622BBFE06E92582F8E2221C
:0D0FF400E58229F582E5833AF583E4932236
:0C100100A42582F582E5F03583F58322FA
:00000001FF
