:010895002240
:100709008F4D8D4E12082E7FA01207441207B8EFA5
:1007190060037F0122AF4D1207441207B8EF60034F
:100729007F0122AF4E1207441207B8EF60037F0121
:0B073900227F0F7E001207FB7F0022D2
:020648008F4DD4
:10064A00E4F54E12082E7FA01207441207B8EF6095
:10065A00037F0022AF4D1207441207B8EF60037FF1
:10066A00002212082E7FA11207441207B8EF600376
:10067A007F002212077E8F4E12081F12083AAF4ED1
:01068A00224D
:0C082E00D2A1D2A0120896C2A002089627
:0C083A00D2A1C2A0120896D2A00208961B
:1007B800E4F54FD2A112089630A017054FAF4FEFBE
:1007C8003395E0FED3EF94C8EE6480948040E97FCF
:0907D8000122C2A11208967F0063
:0107E10022F5
:10080E00C2A1D2A0120896C2A0120896D2A10208C6
:01081E009643
:0F081F00C2A1120896D2A0120896D2A102089682
:020744008F4FD5
:10074600E4F550C2A1120896E4F550E54FC4131320
:100756001354011392A0D2A1120896C2A1120896B0
:10076600E54F25E0F54F0550C3E550648094884079
:08077600DAD2A1D2A00208961C
:10077E00E4F54FF550F550D2A112089630A0047F43
:10078E000180027F00EF424FC3E550648094875092
:10079E0006E54F25E0F54FC2A11208960550C3E5B8
:0907AE00506480948840D0AF4FE4
:0107B700221F
:1006CC00E4F54D30B10930B00630B20320B31F7FD2
:1006DC00027E001207FB20B103754D0820B0037594
:1006EC004D0420B203754D0220B303754D0130B19A
:0C06FC00FD30B0FA30B2F730B3F4AF4D6F
:0107080022CE
:1005F8001822FF0858FF085FFF0866FF086DFF080C
:1006080074FF087BFF0882FF0889113A3F065B4F99
:0D061800666D7D077F6F777C395E7971001C
:07085800D2A4D2A3D2A22218
:07085F00D2A4D2A3C2A22221
:07086600D2A4C2A3D2A2221A
:07086D00D2A4C2A3C2A22223
:07087400C2A4D2A3D2A2220C
:07087B00C2A4D2A3C2A22215
:07088200C2A4C2A3D2A2220E
:07088900C2A4C2A3C2A22217
:10062500140A0000000000000000000000000000A7
:0A06350000000000000002080000B1
:1007E20043878075985053890F438920758BFA751A
:0907F2008DFAD28ED2ACD2AF22F6
:080850008F993099FDC2992235
:10068B00AF99E50820E73930E60BEF640A6002808A
:10069B002A43088022BF0D0443084022E508543F3B
:1006AB00FCC3E5099414EC94005010E509240AF8F6
:1006BB00A6070509E5097008050822E4F508F50900
:0106CB00220C
:05089000AE0702085054
:03002300020003D5
:10000300C0E0C0D075D000C000C004C00730980560
:10001300C29812068BD007D004D000D0D0D0E032E3
:01089600223F
:09084600007F027EC7DEFEDFFC2C
:01084F002286
:1007FB00AD07AC06ED1D70011C144C6005120846CC
:03080B0080F22256
:1004A200415432344330322077726974652064617A
:1004B2007461206661696C6564210D0A00415432E1
:1004C200344330322077726974652064617461202C
:1004D200737563636573732120646174613A2025C7
:1004E200750D0A0072656164206461746120666141
:1004F200696C6564210D0A0072656164206461742F
:100502006120737563636573732120646174613A5A
:100512002025750D0A0064617461202B20313A2078
:0505220025750D0A0023
:08063F000164000361000000EA
:10059C00AF64E4754D02F561F562F563EF601875B3
:1005AC00F00A84AEF0EF75F00A84FFAD4D154D7472
:1005BC00612DF8A60680E5E4F54DE54D75F003A434
:1005CC002422F808E6FA08E6F91203827461254D34
:1005DC00F8E6243AF8E6F5807F047E001207FB85E6
:0B05EC004A80054DE54DD3940240CF3E
:0105F70022E1
:10052700E4F54BF54C1208951207E212059C1206EA
:10053700CC8F4BE54B14605814603E24FE601F249B
:10054700FC70E8AD64AF4C120709EF7BFF60067AD9
:100557000479A280367A0479BF856450802DAF4C28
:100567001206488F64EF7BFF70067A0479E6801BDA
:100577007A0479FA8564508012E564C394FF5002C7
:1005870005647BFF7A057918856450120088809B83
:05059700E4F56480960C
:03000000020416E1
:0C041600787FE4F6D8FD75816402045D77
:060382008A838982E47306
:10002600E55C2450F8E6055C22784D3007027850EE
:10003600E475F0011203E00203882000EB7F2ED264
:10004600008018EF540F2490D43440D4FF30040BB2
:10005600EF24BFB41A0050032461FFE55D6002156A
:100066005D0560E5607002055F30070D784DE4754B
:10007600F0011203E0EF0203CE0208907403D207E8
:100086008003E4C207F55C8B4D8A4E894FE4F55D2B
:10009600F55FF560E55D60077F2012006180F5750C
:1000A6005EFFC201C200C202C203C205C206C20886
:1000B60012002FFF700D3007057F00120072AF602F
:1000C600AE5F22B4255FC2D5C20412002FFF24D032
:1000D600B40A00501A75F00A785D30D50508B6FFE7
:1000E6000106C6A426F620D5047002D20380D924C0
:1000F600CFB41A00EF5004C2E5D204020272D20154
:1001060080C6D20080C0D20280BCD2D580BAD205C9
:1001160080B47F201200612002077401B55D0040A3
:10012600F1120026FF12006102009AD208D2068060
:1001360095120026FB120026FA120026F94A4B7089
:100146000679437A037BFF20022EE55D602A7E0056
:100156008E827583001203A160060EEE655E70F056
:10016600C2D5EBC0E0EAC0E0E9C0E0EE1202B9D0C9
:10017600E0F9D0E0FAD0E0FB120388FF60AAEBC0FA
:10018600E0EAC0E0E9C0E0120061D0E02401F9D065
:10019600E03400FAD0E0FBE55E0460DCD55ED98091
:1001A600877BFF7A0279B5D202809C79108002792A
:1001B60008C206C2088008D2D5790A8004790AC224
:1001C600D5E55E047002F55EE4FAFDFEFF12002638
:1001D600FC7B08200113120026FD7B1030000A125A
:1001E6000026FE120026FF7B20EC3382D592D550E6
:1001F60013C3E43000069FFFE49EFEE42001039D46
:10020600FDE49CFCE4CBF8C201EC700CCFCECDCC67
:10021600E824F8F870F38017C3EF33FFEE33FEEDF2
:1002260033FDEC33FCEB33FB994002FB0FD8E9EBD3
:10023600300105F8D0E0C448B201C0E00AEC4D4EEA
:100246004F78207B0070C2EAB55E0040BCC0E01269
:1002560002BBD0F0D0E0200104C4C0E0C4B201C0AB
:10026600F012004AD0F0D5F0EB02009A1203F0012A
:10027600375301B15801084C01044201B54F01BD85
:0F0286004401BD49011D4301C35501A74601A70E
:100295004501A747036350010C2D01102E01332B97
:1002A500011423013120034C2A00CC480000012B06
:1002B5003F3F3F00790AA2D5200314300509B91044
:1002C500020404B9080104A2D52006025001042045
:1002D50002689202B55D005034C0E07F20300319FA
:1002E5007F30A20272067205500F120312C202C2BB
:1002F50006C205C2087F30800F300503E9C0E01251
:100305000061300503D0E0F9D0E0B55DCC300517CC
:100315007F30B9100C1200617F583004077F788058
:1003250003B908031200613002057F2D0200617FC9
:10033500202008F87F2B2006F322920280CF286E1A
:10034500756C6C2900D2011200263001F8C20178C3
:100355005D30D50108F60200CC2D504349581200F6
:10036500262403B405004001E490035E9312005275
:0D037500743A120052D203755D040201B10A
:10042200020527E493A3F8E493A34003F68001F2C4
:1004320008DFF48029E493A3F85407240CC8C333DB
:10044200C4540F4420C8834004F456800146F6DFAA
:10045200E4800B01020408102040809005F8E47E3D
:10046200019360BCA3FF543F30E509541FFEE4939F
:10047200A360010ECF54C025E060A840B8E493A366
:10048200FAE493A3F8E493A3C8C582C8CAC583CA91
:10049200F0A3C8C582C8CAC583CADFE9DEE780BE49
:0106470000B2
:10038800BB010689828A83E0225002E722BBFE0273
:09039800E32289828A83E49322A6
:1003A100BB010CE58229F582E5833AF583E0225011
:1003B10006E92582F8E622BBFE06E92582F8E2225B
:0D03C100E58229F582E5833AF583E4932275
:1003CE00BB010689828A83F0225002F722BBFE010E
:0203DE00F32208
:1003E000FAE6FB0808E6F925F0F618E6CA3AF6221E
:1003F000D083D082F8E4937012740193700DA3A39C
:1004000093F8740193F5828883E4737402936860AF
:06041000EFA3A3A380DFAF
:00000001FF
