:020000040800F2
:1000000008040020050100089F040008F30300080D
:100010009B0400084D0100083107000800000000A3
:100020000000000000000000000000007D05000846
:100030005101000800000000250500089106000895
:100040001F0100081F0100081F0100081F01000810
:100050001F0100081F0100081F0100081F01000800
:100060001F0100081F0100081F0100081F010008F0
:100070001F0100081F0100081F0100081F010008E0
:100080001F0100081F0100081F0100081F010008D0
:100090001F0100081F0100081F0100081F010008C0
:1000A0001F0100081F0100081F0100081F010008B0
:1000B0001F0100081F0100081F0100081F010008A0
:1000C0001F0100081F0100081F0100081F01000890
:1000D0001F0100081F0100081F0100081F01000880
:1000E000550100081F0100081F010008DFF810D0AB
:1000F00000F01AF80048004753070008AFF30080EB
:10010000080400200648804706480047FEE7FEE74F
:10011000FEE7FEE7FEE7FEE7FEE7FEE7FEE7FEE7B7
:10012000D1060008ED000008064C074D06E0E06827
:1001300040F0010394E8070098471034AC42F6D32E
:10014000FFF7D8FF700700089007000800BFFEE720
:100150007047000010B54FF4805000F03BF828B114
:1001600017480068C0431749C1F88C014FF400508C
:1001700000F030F830B11248001F0068C043114948
:10018000C1F888014FF4804000F024F830B10C48E9
:100190000C380068C0430B49C1F880014FF400409F
:1001A00000F018F830B106480C380068C043054923
:1001B000C1F880014FF4704000F006F810BD000057
:1001C0008C01214200002142014908607047000073
:1001D00014040140014600200022074B1B6803EA7B
:1001E0000102054B14331B680B4013B10AB1012007
:1001F00000E0002070470000000401400021234976
:100200008279002A3AD00A46126803689A430B465C
:100210001A600A1D126803689A430B1D1A6002795E
:1002200011440A6803681A430A60184A08321268BF
:1002300003689A43154B08331A601A1D1268036845
:100240009A43124B0C331A604279102A0ED11A1FAE
:10025000126803681A430D4B08331A601A1D12689E
:1002600003681A43094B0C331A600DE007494279C1
:1002700011440A6803681A430A6005E002791144D0
:100280000A6803689A430A6070470000000401404E
:1002900030B500228B071C0F0F2303FA04F20B4B1F
:1002A0008C1053F824309343084C8D1044F82530BB
:1002B00023468C1053F824308C07240F00FA04F4E2
:1002C0002343024C8D1044F8253030BD0800014016
:1002D0002DE9F041024600250026002000230024DD
:1002E000002791F803C00CF00F0591F803C00CF043
:1002F000100CBCF1000F03D091F802C04CEA0505C8
:1003000091F800C0BCF1000F31D0146800202BE040
:100310004FF0010C0CFA00F3B1F800C00CEA030630
:100320009E4220D183004FF00F0C0CFA03F7BC4320
:1003300005FA03FC4CEA040491F803C0BCF1280F51
:1003400006D14FF0010C0CFA00FCC2F814C00AE010
:1003500091F803C0BCF1480F05D14FF0010C0CFA25
:1003600000FCC2F810C0401C0828D1D31460B1F8BA
:1003700000C0BCF1FF0F34DD546800202EE000F116
:10038000080C4FF0010808FA0CF3B1F800C00CEAB1
:1003900003069E4221D183004FF00F0C0CFA03F7A5
:1003A000BC4305FA03FC4CEA040491F803C0BCF119
:1003B000280F05D100F1080C08FA0CF8C2F81480D7
:1003C00091F803C0BCF1480F07D100F1080C4FF0C1
:1003D000010808FA0CF8C2F81080401C0828CED397
:1003E0005460BDE8F0810146C86880B27047C160C2
:1003F000704700BFFEE7000038B50121042000F07F
:1004000093F8FF20ADF8000010208DF803000320C2
:100410008DF8020069460648FFF75AFF0448FFF7C7
:10042000E2FF0446E4B221460148FFF7E0FF38BD91
:10043000000801400EB50121084600F075F80C21B6
:100440000020FFF725FF0D210020FFF721FF0E21DF
:100450000020FFF71DFF0F210020FFF719FF2820C4
:100460008DF8000001208DF8030002208DF80100B6
:100470008DF80200684600F013F84FF470400190C8
:1004800001208DF80A0000208DF808000C208DF85E
:10049000090001A8FFF7B2FE0EBD00BFFEE77047DE
:1004A00070B5002100230F22C47804B3154C2468D2
:1004B00004F4E064C4F5E064210AC1F10403CA4015
:1004C000447804FA03F184781440214309010E4C66
:1004D0000678A155047804F01F050124AC40057886
:1004E0006D11AD0005F1E025C5F8004109E0047883
:1004F00004F01F050124AC40044D0678761145F840
:10050000264070BD0CED00E000E400E080E100E07A
:1005100002490143024A1160704700000000FA05D9
:100520000CED00E07047000029B1064A92690243D1
:10053000044B9A6104E0034A92698243014B9A6139
:10054000704700000010024008B501210420FFF7A9
:10055000EBFF01210846FFF7E7FF4FF47040ADF8CD
:10056000000003208DF8020048208DF80300694642
:100570000148FFF7ADFE08BD00080140704710B507
:1005800000F002F810BD00000CB5002001900090B2
:100590003348006840F480303149086000BF30487B
:1005A000006800F4003000900198401C0190009811
:1005B00018B90198B0F5A06FF1D12948006800F48E
:1005C000003010B10120009001E000200090009860
:1005D000012843D12348006840F0100021490860F9
:1005E0000846006820F0030008600846006840F0F4
:1005F000020008601A484068194948600846406887
:1006000048600846406840F480604860084640689A
:1006100020F47C1048600846406840F4E8104860C8
:100620000846006840F08070086000BF0C48006811
:1006300000F000700028F9D00948406820F003005D
:10064000074948600846406840F00200486000BF23
:100650000348406800F00C000828F9D10CBD0000E8
:100660000010024000200240042808D14FF0E02191
:10067000096941F004014FF0E022116107E04FF0F9
:10068000E021096921F004014FF0E0221161704777
:100690007047000010B504466FF00400FFF7E4FF58
:1006A000E11704EB5171C1F3C701074A11701046FD
:1006B000007800EB4001C1EBC0104FF6FF7101EA7A
:1006C000C0000249088010BD000000200200002088
:1006D00010B51348006840F0010011490860084651
:1006E0004068104908400E494860084600680E49B5
:1006F00008400B4908600846006820F48020086024
:100700000846406820F4FE0048604FF41F008860EF
:10071000FFF735FF4FF000600449086010BD00008E
:10072000001002400000FFF8FFFFF6FE08ED00E0B9
:1007300000BFFEE702E008C8121F08C1002AFAD174
:1007400070477047002001E001C1121F002AFBD151
:1007500070474820FFF79EFF4FF4A060FFF7D8FED8
:10076000FFF7F2FEFFF766FEFFF746FE00BFFEE76B
:100770009007000800000020040000003407000873
:100780009407000804000020040400004407000847
:040790000000000065
:04000005080000ED02
:00000001FF
