:10014A001808FF0195FF019CFF01A3FF01AAFF0107
:10015A00B1FF01B8FF01BFFF01C611203F065B4F87
:0D016A00666D7D077F6F777C395E797100CF
:07019500D2A4D2A3D2A222E2
:07019C00D2A4D2A3C2A222EB
:0701A300D2A4C2A3D2A222E4
:0701AA00D2A4C2A3C2A222ED
:0701B100C2A4D2A3D2A222D6
:0701B800C2A4D2A3C2A222DF
:0701BF00C2A4C2A3D2A222D8
:0701C600C2A4C2A3C2A222E1
:09018B00007F027EC7DEFEDFFCEE
:010194002248
:10017800AD07AC06ED1D70011C144C600512018B17
:0301880080F222E0
:10011A00E4FB30B10930B00630B20320B31F7F02CE
:10012A007E0012017820B10343030820B003430381
:0F013A000420B20343030220B303430301AF03C6
:010149002293
:0800E300D2A3D2A2D2A1D2A047
:1000EB0012011A8F31E53130E302C2A0E53130E263
:1000FB0002C2A1E53130E102C2A2E53130E002C219
:0D010B00A3E53170DBD2A3D2A2D2A1D2A015
:0201180080D194
:03008F0085208049
:1000920012011A8F32E53230E30DAA09A90A1201C0
:1000A200CD85208012018BE53230E20DAA0CA90D1C
:1000B2001201CD85218012018BE53230E10DAA0FAC
:1000C200A9101201CD85228012018BE53230E00D9C
:0F00D200AA12A9131201CD85238012018BE532EA
:0200E10080AFEE
:0301D30002008F98
:03000000020003F8
:0C000300787FE4F6D8FD75813202004AD7
:0601CD008A838982E473BD
:10000F000201D3E493A3F8E493A34003F68001F233
:10001F0008DFF48029E493A3F85407240CC8C333F2
:10002F00C4540F4420C8834004F456800146F6DFC1
:10003F00E4800B010204081020408090014AE47E06
:10004F00019360BCA3FF543F30E509541FFEE493B6
:10005F00A360010ECF54C025E060A840B8E493A37D
:10006F00FAE493A3F8E493A3C8C582C8CAC583CAA8
:10007F00F0A3C8C582C8CAC583CADFE9DEE780BE60
:010177000087
:00000001FF
