:10031500017D11117D01017D55555501017D0505B4
:100325000501017D05050501017D45457D01017D30
:0503350011117D010122
:1003B00008377FBFDFEFF7FBFDFE083F80402010CE
:0403C000080402012A
:0703CF00C2B61203D6D2B63C
:0103D6002204
:0903C500007F027EC7DEFEDFFCB2
:0103CE00220C
:0A039700F8E6FF1202EE7F1E7E0062
:0F03A100EF1F70011E144E60051203D680F2226A
:0D033A00743F2BF8E6FF1202EE7F647E0098
:10034700AD07AC06ED1D70011C144C60051203C50A
:0303570080F2220F
:1002EE00E4FEEFC4131313540124FF92B4EF25E080
:1002FE00FF1203CFC2B60EBE08E8C2B51203D6D2A5
:06030E00B51203D6C2B5D2
:0103140022C6
:0801B2008E478F48AB05AA043B
:1001BA00E4FDE547C4131313540124FF92B4E54840
:1001CA0025E0F548E54733F5471203CFC2B60DBD22
:1001DA0010E0E4FDEAC4131313540124FF92B4EBB4
:1001EA0025E0FBEA33FA1203CFC2B60DBD10E5C211
:0B01FA00B51203D6D2B51203D6C2B571
:0102050022D6
:10037A00E4FB7580FFF58012033A0BBB08F97B0793
:0C038A0012033A1BC3EB6480948050F413
:010396002244
:1002C000E4FB7580FF7FFF1202EE74372BF8E6F532
:1002D000801203430BBB08F27B0774372BF8E6F55B
:0D02E000801203431BC3EB6480948050ED3B
:0102ED0022EE
:10024800E4FD7C077580FFFF1202EE7F0180027FCC
:1002580000EF602A74372DF8E6F580743F2D1203FD
:1002680097743F2C1203977580FFE4FF1202EE1279
:0E02780003C50D1CC3EC6480948050CF80D170
:010286002255
:060206008B338A348935B8
:10020C00E4F536F536E4FF1202EEAB33AA34A93529
:10021C00AF36EF3395E08F82F5831200F9FF1202AF
:10022C00EE74372536F8E6F5807F037E001203471F
:0B023C000536C3E5366480948840CA94
:010247002294
:080287008B2D8A2E892F8D308A
:10028F00E4F531F532E53024F9FFE532C39F502014
:10029F00E4F531AB2D7E00E52F2532F9EE352EFA40
:1002AF001202060531E531C3940540E7053280D5CA
:0102BF00221C
:10035A0078087C007D007BFF7A0379157E007F2573
:10036A001200D37B007A0079087D2512028780F378
:03000000020126D4
:0C012600787FE4F6D8FD75814802016D79
:10000300E709F608DFFA8046E709F208DFFA803EDF
:1000130088828C83E709F0A3DFFA8032E309F608CC
:10002300DFFA8078E309F208DFFA807088828C8334
:10003300E309F0A3DFFA806489828A83E0A3F608E8
:10004300DFFA805889828A83E0A3F208DFFA804CC2
:1000530080D280FA80C680D4806980F28033801099
:1000630080A680EA809A80A880DA80E280CA803302
:1000730089828A83ECFAE493A3C8C582C8CCC5837A
:10008300CCF0A3C8C582C8CCC583CCDFE9DEE7804A
:100093000D89828A83E493A3F608DFF9ECFAA9F0C9
:1000A300EDFB2289828A83ECFAE0A3C8C582C8CC1F
:1000B300C583CCF0A3C8C582C8CCC583CCDFEADE38
:1000C300E880DB89828A83E493A3F208DFF980CC9A
:1000D30088F0EF60010E4E60C388F0ED2402B40493
:1000E3000050B9F582EB2402B4040050AF2323453A
:0600F3008223900053730C
:1000F900BB010CE58229F582E5833AF583E02250BC
:1001090006E92582F8E622BBFE06E92582F8E22205
:0D011900E58229F582E5833AF583E493221F
:1001320002035AE493A3F8E493A34003F68001F286
:1001420008DFF48029E493A3F85407240CC8C333CE
:10015200C4540F4420C8834004F456800146F6DF9D
:10016200E4800B01020408102040809003B0E47E7A
:10017200019360BCA3FF543F30E509541FFEE49392
:10018200A360010ECF54C025E060A840B8E493A359
:10019200FAE493A3F8E493A3C8C582C8CAC583CA84
:1001A200F0A3C8C582C8CAC583CADFE9DEE780BE3C
:0103C4000038
:00000001FF
