:020000040800F2
:100000000804002005010008C9030008690200086F
:10001000C50300084D010008B108000800000000F9
:10002000000000000000000000000000FD060008C5
:1000300051010008000000005106000811080008E6
:100040001F0100081F0100081F0100081F01000810
:100050001F0100081F0100081F0100081F01000800
:100060001F0100081F0100081F0100081F010008F0
:100070001F0100081F0100081F0100081F010008E0
:100080001F0100081F0100081F0100081F010008D0
:100090001F0100081F0100081F0100081F010008C0
:1000A0001F0100081F0100081F0100081F010008B0
:1000B0001F0100081F0100081F0100081F010008A0
:1000C0001F0100081F0100081F0100081F01000890
:1000D0001F0100081F0100081F0100081F01000880
:1000E0001F0100081F0100081F010008DFF810D0E1
:1000F00000F01AF800480047210A0008AFF300801A
:10010000080400200648804706480047FEE7FEE74F
:10011000FEE7FEE7FEE7FEE7FEE7FEE7FEE7FEE7B7
:1001200051080008ED000008064C074D06E0E068A5
:1001300040F0010394E8070098471034AC42F6D32E
:10014000FFF7D8FFEC1600080C17000800BFFEE709
:1001500070472DE9F04102460025002600200023CB
:100160000024002791F803C00CF00F0591F803C09C
:100170000CF0100CBCF1000F03D091F802C04CEA57
:10018000050591F800C0BCF1000F31D014680020C3
:100190002BE04FF0010C0CFA00F3B1F800C00CEAB0
:1001A00003069E4220D183004FF00F0C0CFA03F798
:1001B000BC4305FA03FC4CEA040491F803C0BCF10B
:1001C000280F06D14FF0010C0CFA00FCC2F814C045
:1001D0000AE091F803C0BCF1480F05D14FF0010CC3
:1001E0000CFA00FCC2F810C0401C0828D1D31460DF
:1001F000B1F800C0BCF1FF0F34DD546800202EE0E0
:1002000000F1080C4FF0010808FA0CF3B1F800C037
:100210000CEA03069E4221D183004FF00F0C0CFA2A
:1002200003F7BC4305FA03FC4CEA040491F803C04D
:10023000BCF1280F05D100F1080C08FA0CF8C2F83F
:10024000148091F803C0BCF1480F07D100F1080CED
:100250004FF0010808FA0CF8C2F81080401C08287A
:10026000CED35460BDE8F08100BFFEE708B50121A0
:10027000082000F0EFF90121082000F0EBF9C02080
:10028000ADF8000010208DF8030003208DF8020067
:1002900069460548FFF75DFF0120044908600449ED
:1002A000C1F89C0108BD0000000C0140988121426A
:1002B0000080214210B500F06BFB01200949086065
:1002C0000949C1F89C01052000F084FB0020054984
:1002D000091D0860052000F07DFB00200249C1F8DF
:1002E000980110BD988121420080214210B500F094
:1002F0004FFB01200849086000200849C1F89C0113
:10030000052000F067FB01200349091D0860052056
:1003100000F060FB10BD0000988121420080214266
:1003200010B5002401201149086000F053FB00F0D3
:100330001DFB01200E49C1F89801052000F04AFB81
:1003400006E0601CC4B2C82C02DD0024012010BDF0
:100350000648803800680128F3D000200349091FAF
:100360000860052000F036FB0020F0E79C81214268
:100370000080214270B5044600F00AFB00200F49BE
:100380000860052000F026FB002514E0E0110B4971
:10039000091D086001200A49C1F89801052000F0F4
:1003A00019FB002005490860052000F013FB6006DA
:1003B000040E681CC5B2082DE8DB70BD988121428F
:1003C0000080214200BFFEE7704770B50024002581
:1003D00000BF15E004F1B001C8B200F0BBFA102074
:1003E00000F0B8FA002000F0B5FA002504E0002083
:1003F00000F0B6FA681CC5B2802DF8DB601CC4B2F0
:10040000082CE7DB70BD10B5AE2000F0A3FAD520B4
:1004100000F0A0FA802000F09DFAA82000F09AFADF
:100420003F2000F097FAD32000F094FA002000F06B
:1004300091FA402000F08EFA8D2000F08BFA142003
:1004400000F088FA202000F085FA022000F082FAFD
:10045000A12000F07FFAC82000F07CFADA2000F03A
:1004600079FA122000F076FA812000F073FAEF207A
:1004700000F070FAD92000F06DFAF12000F06AFA6D
:10048000DB2000F067FA302000F064FAA42000F0CE
:1004900061FAA62000F05EFAAF2000F05BFA10BD12
:1004A0002DE9F04F85B00546884614469B4604FB6F
:1004B00004F0C11700EB5171C1F3C7010491CDF8ED
:1004C0000C804FF0000900260020029001905F464A
:1004D000102C01D1042000E004200090102C01D148
:1004E000394800E039488246802D03DCB8F1080F16
:1004F00000DC17B905B0BDE8F08F5EE0C4F1800004
:10050000A84202DBB8F13E0F00DD59E005F00F0014
:1005100002902809019000264AE0C6EB061000EB85
:1005200080001AF80000397888423FD1C6EB0610E7
:1005300000EB8000504440787978884236D1C6EB91
:10054000061000EB800050448078B97888422DD1A5
:10055000DDF80C804FF0000922E099FBF4F004FB79
:10056000109078B941464A1C02F0FF0841F0B000F3
:1005700000F0F0F9019941F0100000F0EBF9029859
:1005800000F0E8F9C6EB061101EB81015144C91CEA
:1005900011F8090000F0E4F909F1010000F0FF0989
:1005A00004988145D9DB2819C5B204E0701CC6B295
:1005B00000988642B1DB00BFFF1C387800289DD12F
:1005C00000BF00BF96E70000C011000894100008AB
:1005D00070B504460025002600BF16E005F1B00105
:1005E000C8B200F0B7F9102000F0B4F9002000F014
:1005F000B1F9002605E0207800F0B2F9641C701C07
:10060000C6B2802EF7DB681CC5B2082DE6DB70BDD4
:100610002DE9F04104460E4617463D46802C02DC8B
:10062000082E00DC0DB9BDE8F0810BE0802C00DD68
:100630000BE02A783146204600F03CF904F108002E
:10064000C4B26D1C28780028F0D100BF00BFEAE7D3
:100650007047000029B1064A92690243044B9A612F
:1006600004E0034A92698243014B9A61704700009B
:100670000010024010B5FFF7F9FD10BD10B504469B
:10068000FFF718FE7820FFF775FEFFF749FE08B167
:10069000012010BD0020FFF76DFEFFF741FE08B1FD
:1006A0000120F6E72046FFF765FEFFF739FE08B1A7
:1006B0000120EEE7FFF71AFE0020EAE710B5044636
:1006C000FFF7F8FD7820FFF755FEFFF729FE08B188
:1006D000012010BD4020FFF74DFEFFF721FE08B1BD
:1006E0000120F6E72046FFF745FEFFF719FE08B1A7
:1006F0000120EEE7FFF7FAFD0020EAE7704710B5AA
:1007000000F002F810BD00000CB500200190009030
:100710003348006840F480303149086000BF3048F9
:10072000006800F4003000900198401C019000988F
:1007300018B90198B0F5A06FF1D12948006800F40C
:10074000003010B10120009001E0002000900098DE
:10075000012843D12348006840F010002149086077
:100760000846006820F0030008600846006840F072
:10077000020008601A484068194948600846406805
:1007800048600846406840F4806048600846406819
:1007900020F47C1048600846406840F4E810486047
:1007A0000846006840F08070086000BF0C48006890
:1007B00000F000700028F9D00948406820F00300DC
:1007C000074948600846406840F00200486000BFA2
:1007D0000348406800F00C000828F9D10CBD000067
:1007E0000010024000200240042808D14FF0E02110
:1007F000096941F004014FF0E022116107E04FF078
:10080000E021096921F004014FF0E02211617047F5
:100810007047000010B504466FF00400FFF7E4FFD6
:10082000E11704EB5171C1F3C701074A117010467B
:10083000007800EB4001C1EBC0104FF6FF7101EAF8
:10084000C0000249088010BD000000200200002006
:1008500010B51348006840F00100114908600846CF
:100860004068104908400E494860084600680E4933
:1008700008400B4908600846006820F480200860A2
:100880000846406820F4FE0048604FF41F0088606E
:10089000FFF735FF4FF000600449086010BD00000D
:1008A000001002400000FFF8FFFFF6FE08ED00E038
:1008B00000BFFEE72DE9F05F074688469146102508
:1008C00000240026A246A9F1200000F0FF0B07F04B
:1008D0000F064FEA171A48F0B00000F03BF84AF054
:1008E000100000F037F8304600F034F800BF08E0A0
:1008F000174901EB0B1111F8140000F031F8601CDE
:10090000C4B205EBD571B4EB610FF1DB08F1010165
:10091000C9B241F0B00000F01DF84AF0100000F03C
:1009200019F8304600F016F800240AE0084901EBF7
:100930000B11012202EB4402885C00F011F8601CEC
:10094000C4B205EBD571B4EB610FEFDBBDE8F09FEE
:10095000A40A000810B504462046FFF78FFE10BD1C
:1009600010B504462046FFF7A9FE10BD08B580204B
:10097000ADF8000048208DF8030003208DF8020038
:1009800069460248FFF7E5FB08BD0000000C014086
:1009900008B58020ADF8000010208DF8030003207A
:1009A0008DF8020069460248FFF7D3FB08BD00003E
:1009B000000C014002E008C8121F08C1002AFAD149
:1009C00070477047002001E001C1121F002AFBD1CF
:1009D000704700000146114A12784A434FF0E02365
:1009E0005A6100229A611A46126942F001021A61A4
:1009F000002000BF4FF0E022106900F001021AB1A0
:100A000000F48032002AF5D04FF0E0221269002273
:100A10004FF0E0231A619A61704700000000002047
:100A20004820FFF7F7FEFFF725FEFFF7ECFC1EE07E
:100A3000FFF7CBFC0E48FFF7CBFDFFF7C6FC0DA37D
:100A4000182200210846FFF72BFD0AA310220521DA
:100A50000020FFF725FDFFF7B8FC0AA20021084699
:100A6000FFF7D6FD0BA203210020FFF7D1FDDFE742
:100A7000EC120008E5A4A9E78E8BE88081E5AD9033
:100A8000000000007469616E77616E676C616F7A57
:100A9000692E00005449414E57414E474C414F5A30
:100AA000492E0000000000000000000000000000CF
:100AB00000000000000000000000F833000000000B
:100AC00000000000000010000C00020010000C00EC
:100AD0000200000000004004C03F78044004C03F12
:100AE000780400000000701888208820FCFF08218E
:100AF000301E0000F0000831F00C8003601E182149
:100B0000001E0000001EF0210823882C7019002709
:100B100000210010000012000E0000000000000084
:100B200000000000000000000000E007181804208A
:100B3000024000000000024004201818E0070000F6
:100B400000000000400240028001F00F80014002DE
:100B5000400200000000000100010001E00F000160
:100B60000001000100000090007000000000000083
:100B70000000000000000001000100010001000170
:100B80000001000000000030003000000000000004
:100B9000000000000000006000180007C0003800DE
:100BA000040000000000E00F1010082008201010C2
:100BB000E00F00000000000010201020F83F00208F
:100BC00000200000000070300828082408220821B6
:100BD000F030000000003018082008210821882289
:100BE000701C000000000006800540243024F83FFF
:100BF000002400240000F81988208820882008118B
:100C0000080E00000000E00F1011882088209020BE
:100C1000001F0000000018000800083E880168005E
:100C2000180000000000701C88220821082188227A
:100C3000701C00000000F0010812082208221011A8
:100C4000E00F0000000000000000C030C0300000D5
:100C50000000000000000000000080E00000000034
:100C60000000000000000001800240042008101075
:100C70000820000000004002400240024002400202
:100C800040020000000008201010200840048002EC
:100C9000000100000000700048000830083788009C
:100CA00070000000C0073018C8272828E82F102837
:100CB000E01700000020003CC0233802E0020027BB
:100CC000003800200820F83F8820882088207011F4
:100CD000000E0000C0073018082008200820081067
:100CE000380800000820F83F0820082008201010CD
:100CF000E00F00000820F83F88208820E823082023
:100D0000101800000820F83F88208800E803080039
:100D100010000000C0073018082008200822381EE4
:100D2000000200000820F83F08210001000108210E
:100D3000F83F0820000008200820F83F082008207D
:100D40000000000000C0008008800880F87F0800D4
:100D5000080000000820F83F8820C0012826183825
:100D6000082000000820F83F082000200020002074
:100D7000003000000820F83FF801003EF801F83F7D
:100D8000082000000820F83F3020C00000070818A5
:100D9000F83F0800E00F101008200820082010106D
:100DA000E00F00000820F83F0821080108010801B1
:100DB000F0000000E00F101008280828083010503C
:100DC000E04F00000820F83F882088008803880C46
:100DD0007030002000007038882008210821082287
:100DE000381C0000180008000820F83F0820080000
:100DF000180000000800F81F08200020002008202C
:100E0000F81F08000800780088070038000EC801A5
:100E1000380008000800F803003EF801003EF8031F
:100E20000800000008201830682C80038003682C1C
:100E30001830082008003800C820003FC8203800BB
:100E4000080000001020083808260821C820382093
:100E500008180000000000000000FE7F0240024071
:100E600002400000000004003800C0010006003805
:100E700000C000000000024002400240FE7F00006F
:100E80000000000000000000040002000200040056
:100E90000000000000800080008000800080008052
:100EA000008000800000020002000400000000003A
:100EB0000000000000000019802480248012003F00
:100EC000002000001000F03F001180208020001161
:100ED000000E00000000000E001180208020802005
:100EE000001100000000001F802080208020901052
:100EF000F03F00200000001F8024802480248024F4
:100F000000170000000080208020E03F902090200B
:100F1000200000000000006B8094809480948093F7
:100F2000806000001020F03F0021800080008020C1
:100F3000003F0020000080209820983F00200020E3
:100F400000000000000000C0008080809880987F32
:100F5000000000001020F03F0024000680298030AF
:100F600080200000000010201020F83F002000200A
:100F7000000000008020803F80208000803F802093
:100F80008000003F8020803F002180008000802082
:100F9000003F00200000001F802080208020802053
:100FA000001F0000808080FF0091802080200011C1
:100FB000000E00000000000E001180208020009133
:100FC00080FF008080208020803F002180208000E2
:100FD00080010000000000338024802480248024CD
:100FE00080190000000080008000E01F8020802029
:100FF000001000008000801F0020002000208010D2
:10100000803F002080008003800C0030800C800333
:10101000800000008001800E0030800C80070038C6
:1010200080068001000080208031800E002E8031FB
:101030008020000080008081808600780018800673
:1010400080018000000080218030802C802280215F
:101050008030000000000000000000000001FC3EA5
:10106000024002400000000000000000FFFF0000FE
:101070000000000002400240FC3E000100000000B1
:101080000000000000000200010002000200040055
:1010900002000000E5A4A9000000000808080808F4
:1010A0000808F8F808080808080C0C0800000000F8
:1010B0000004040404040404C4FC7F0F3CF4C404CE
:1010C00004040606060400000040602030180C07E7
:1010D00003010000000003070E1C3870702000E7B9
:1010E0008E8B0000001010101010101010F0F0F097
:1010F0001010101010181810000000000000101040
:101100001010101010FFFFFF101010101010100022
:10111000000000202020202020202020203F3F3FD2
:1011200020202020202020202000E88081000000B6
:1011300000002020202020FEFEFE202020E0E0787D
:1011400038180000000002020202020282E2E2639A
:10115000331B1E8EC7C3E262420202020000040477
:1011600006020301013F7F66424341414040404047
:101170007E7E200000E5AD90000000000808080811
:1011800008080808088888C8683818180800000087
:101190000008080808080808080808FFFFFF0808F2
:1011A000080808080C0C08000000000000000010EF
:1011B0001030607F7F3F0000000000000000000052
:1011C000E5A4A940404242424242FEFE424242421F
:1011D0004240408080C060301C0F03030F1C306011
:1011E000C08080000000000000000000000000003F
:1011F00000000000000000000000000000000000EF
:101200000000000000000000000000E78E8B0002DC
:101210008282828282FEFE8282828282020040403C
:1012200040404040407F7F404040404040400000C0
:1012300000000000000000000000000000000000AE
:10124000000000000000000000000000000000009E
:10125000000000000000E88081202024242424BF16
:10126000FF64343C2C2622202010180C063F7F45BA
:10127000444642424379780000000000000000002C
:10128000000000000000000000000000000000005E
:10129000000000000000000000000000000000004E
:1012A00000E5AD9080828282828282E2E2B29A8EF2
:1012B00086828080000000000040C0FF7F000000A8
:1012C000000000000000000000000000000000001E
:1012D000000000000000000000000000000000000E
:1012E00000000000000000000000000000000000FE
:1012F00000000000000000000000000000000000EE
:10130000000000400000000000000000000000009D
:10131000000000000000FCFFFFFF7E7C78F0C000B2
:101320000000000000000000000080E0F0787E7EF9
:10133000FFFFFFF8000000000000000000000000B8
:10134000000000000000000000000000000000009D
:10135000000000000000000000000000000000008D
:10136000000000000000000000000000000000007D
:10137000000000000000000000000000000000006D
:10138000000000000000000000000000000000005D
:10139000000000000000071F7FF0C0800001FFFF79
:1013A000F88080808080808080FCFFDF010080E00A
:1013B000F87F1F0100000000000000000000000096
:1013C000000000000000000000000000000000001D
:1013D000000000000000000000000000000000000D
:1013E00000000000000000000000000000000000FD
:1013F00000000000000000000000000000000000ED
:1014000000000000000000000000000000000000DC
:101410000000000000000080E0F17F3F0F0F070395
:101420000303010101010101030303070E0F3F7BC9
:10143000F1C00000000000000000000000000000FB
:10144000000000000000000000000000000000009C
:10145000000000000000000000000000000000008C
:10146000000000000000000000000000000000007C
:10147000000000000000000000000000000000006C
:10148000000000000000000000000000000000005C
:1014900000000000000000FFFF010000000000004D
:1014A00060E070303030307070E0C000000000004C
:1014B00003FFFF00000080C0E0E06060E0C0C0808B
:1014C000808000000000000000000000000000001C
:1014D000000000000000000000000000000000000C
:1014E00000000000000000000000000000000000FC
:1014F00000000000000000000000000000000000EC
:1015000000000000000000000000000000000000DB
:1015100000000000000000FFFF00000000000000CD
:1015200038381C0C0C0C0C0C1C38300080C0E0F05F
:10153000783F1F1E0F07030301000000008081C1D8
:10154000C1E3E377763E3C1C1C0000000000000075
:10155000000000000000000000000000000000008B
:10156000000000000000000000000000000000007B
:10157000000000000000000000000000000000006B
:10158000000000000000000000000000000000005B
:1015900000000000000080FFFF00000000000000CD
:1015A0000000000000000000000000000101010335
:1015B000031F0E06000000808080CECFCFFFFB7996
:1015C000717020000000000000000000000000001A
:1015D000000000000000000000000000000000000B
:1015E00000000000000000000000000000000000FB
:1015F00000000000000000000000000000000000EB
:1016000000000000000000000000000000000000DA
:101610000000000000FEFFFF0100000000000000CD
:10162000000000C0C0E0E0E07070703838181C1C8A
:101630000C0EFEFEFF070303030101010000000082
:10164000000000000000000000000000000000009A
:10165000000000000000000000000000000000008A
:10166000000000000000000000000000000000007A
:10167000000000000000000000000000000000006A
:10168000000000000000000000000000000000C09A
:10169000C080C080C0C107CFCEFCF8F8D8F8F818D9
:1016A0001818181818181818181878F8F8D8F8F81A
:1016B0007C1E0F070000000000000000000000007A
:1016C000000000000000000000000000000000001A
:1016D000000000000000000000000000000000000A
:1016E0000000000000000000000000000C170008CF
:1016F0000000002004000000B409000810170008D2
:101700000400002004040000C409000800000000D8
:04000005080000ED02
:00000001FF
