:0801500012019012019180FEE2
:10008F001808FF0158FF015FFF0166FF016DFF01B7
:10009F0074FF017BFF0182FF018912203F065B4F36
:0E00AF00666D7D077F6F777C395E797180000A
:01019000224C
:07015800D2A4D2A3D2A2221F
:07015F00D2A4D2A3C2A22228
:07016600D2A4C2A3D2A22221
:07016D00D2A4C2A3C2A2222A
:07017400C2A4D2A3D2A22213
:07017B00C2A4D2A3C2A2221C
:07018200C2A4C2A3D2A22215
:07018900C2A4C2A3C2A2221E
:01019100224B
:1000BE00E4F532F533C2B6D2B500C2B5001200E592
:1000CE00E4FF0FBF0AFCD2B600C2B6001201048EC6
:0600DE00328F33D2B500A1
:0100E40022F9
:1000E500C2B600E4FEEFC4131313540124FF92B407
:0E00F500EF25E0FFD2B600C2B6000EBE08E74F
:0101030022D9
:10010400E4FFFEC2B600FDA2B7E4334207EF25E0E8
:0E011400FFEE33FED2B600C2B6000DBD0CE900
:0101220022BA
:01019200224A
:10013600EF1FAC0670011E4C600512019280F12281
:09014600007F027EC7DEFEDFFC33
:01014F00228D
:10012300AD07AC06ED1D70011C144C6005120146B1
:0301330080F22235
:03000000020003F8
:0C000300787FE4F6D8FD75813302004AD6
:10000F00020150E493A3F8E493A34003F68001F2B6
:10001F0008DFF48029E493A3F85407240CC8C333F2
:10002F00C4540F4420C8834004F456800146F6DFC1
:10003F00E4800B010204081020408090008FE47EC2
:10004F00019360BCA3FF543F30E509541FFEE493B6
:10005F00A360010ECF54C025E060A840B8E493A37D
:10006F00FAE493A3F8E493A3C8C582C8CAC583CAA8
:10007F00F0A3C8C582C8CAC583CADFE9DEE780BE60
:0100BD000042
:00000001FF
