:10029500D2827F0A7E001203E2C2827F0A7E0012AA
:1002A50003E2D2827F0A7E001203E2D283C2867FF6
:1002B500E21203217FC81203217FA01203217F2FA1
:1002C5001203217F261203217F811203217F101241
:0702D50003217FAF020321AA
:10036600E4F508F509D283C286F5087F4012032119
:10037600E50824B0FF1203217F10120321E4FF12C7
:100386000321E4F509E4FF1202DC0509E509C3943B
:0C0396006040F20508E508C3940940CF60
:0103A2002238
:0202DC008F0D84
:1002DE00E4F50EC286120422C283120422D284E4F2
:1002EE00F50EE50D30E703D38001C39285E50D25AC
:1002FE00E0F50DD286120422C286120422050EE506
:10030E000EC3940840DCD286120422C28612042246
:02031E00D28388
:0103200022BA
:020321008F0D3E
:10032300E4F50EC286120422C283120422C284E4BC
:10033300F50EE50D30E703D38001C39285E50D2566
:10034300E0F50DD286120422C286120422050EE5C0
:100353000EC3940840DCD286120422C28612042201
:02036300D28343
:010365002275
:07041B008F0F8D108B1122E1
:060243008B088A09890AFC
:10024900E4F50BF50CF50B7F40120321E50B24B007
:10025900FF1203217F10120321E4FF120321E4F5A9
:100269000CAB08AA09A90A1203C9FF1202DC74011E
:10027900250AF50AE43509F509050CE50CC394606E
:0B02890040DF050BE50BC3940640BCF2
:010294002247
:1000030000000000000000000000000000000000ED
:1000130000000000000000000000000000000000DD
:1000230000000000000000000000000000000000CD
:1000330080808080808080808080808080808080BD
:1000430000000000000000000000000000000000AD
:10005300000000000000000000000000000000009D
:10006300000000000000000000000000000000008D
:10007300000000000000000000000000000000007D
:100083000000000000000000000000000000FEFF70
:10009300FFFBF9FBFFFFFFFFFFFFFFFFFFFFFFFF7B
:1000A300FFFEFE0000000000000000000000000052
:1000B300000000000000000000000000000000003D
:1000C300000000000000000000000000000000002D
:1000D300000000000000000000FCFCE0E0C08080A5
:1000E300000000000000008080E0E0F0F8F8FFFF6F
:1000F300FFFFFFFFFF878786848404040404040052
:1001030000000000000000000000000000000000EC
:1001130000000000000000000000000000000000DC
:1001230000000000000000000000000000000000CC
:100133000000000000000000000F0F3F3F7FFFFFA3
:10014300FCFCFCFCFEFEFFFFFFFFFFFFFFFFFFFFCA
:10015300FFFF7F3F3F010103030300000000000096
:10016300000000000000000000000000000000008C
:10017300000000000000000000000000000000007C
:10018300000000000000000000000000000000006C
:10019300000000000000000000000000000000015B
:1001A3000103FFFF7F7F1F0F070F1FFFFFFF0101EA
:1001B300000000000000000000000000000000003C
:1001C300000000000000000000000000000000002C
:1001D300000000000000000000000000000000001C
:1001E300000000000000000000000000000000000C
:1001F30000000000000000000000000000000000FC
:1002030000000303030300000000000303030302D1
:1002130000000000000000000000000000000000DB
:1002230000000000000000000000000000000000CB
:1002330000000000000000000000000000000000BB
:1003A3001202957FD07E071203E21203667FD07E8E
:1003B300071203E27BFF7A0079031202437FD07EA8
:0603C300071203E280FEB8
:0104220022B7
:1003F500EF1FAC0670011E4C600512042280F1222D
:09041100007F027EC7DEFEDFFC65
:01041A0022BF
:1003E200AD07AC06ED1D70011C144C600512041122
:0303F20080F22274
:03000000020405F2
:0C040500787FE4F6D8FD7581110203A396
:1003C900BB010689828A83E0225002E722BBFE0232
:0903D900E32289828A83E4932265
:00000001FF
