:020000040800F2
:100000002805002005010008ED0400087704000819
:10001000E9040008C1010008C30C0008000000004A
:100020000000000000000000000000008D06000835
:10003000C50100080000000075050008A1070008C0
:100040001F0100081F0100081F0100081F01000810
:100050001F0100081F0100081F0100081F01000800
:100060001F0100081F0100081F0100081F010008F0
:100070001F0100081F0100081F0100081F010008E0
:100080001F0100081F0100081F0100081F010008D0
:100090001F0100081F0100081F0100081F010008C0
:1000A0001F0100081F0100081F0100081F010008B0
:1000B0001F0100081F0100081F0100081F010008A0
:1000C0001F0100081F0100081F0100081F01000890
:1000D0001F010008410800081F01000895090008D9
:1000E0001F0100081F0100081F010008DFF810D0E1
:1000F00000F054F800480047E90F0008AFF3008013
:10010000280500200648804706480047FEE7FEE72E
:10011000FEE7FEE7FEE7FEE7FEE7FEE7FEE7FEE7B7
:10012000E1070008ED000008D2B201E000F8012B61
:10013000491EFBD270470022F6E710B513460A4667
:1001400004461946FFF7F0FF204610BD30B50546BE
:100150002A460B4612F8010B13F8014B08B1A042D6
:10016000F8D01CB1002802D06D1CF1E7284630BD44
:1001700030B50B46014600202022012409E021FA77
:1001800002F59D4205D303FA02F5491B04FA02F574
:100190002844151EA2F10102F1DC30BD064C074DCA
:1001A00006E0E06840F0010394E807009847103447
:1001B000AC42F6D3FFF79EFFEC1000080C110008CC
:1001C00000BFFEE7704700001CB50121082000F0C9
:1001D000E3F90121042000F0DFF90420ADF8040068
:1001E00003208DF8060010208DF8070001A90C48A7
:1001F00000F0B0F84FF40040ADF8000003208DF897
:10020000020010208DF803006946064800F0A2F8AD
:100210000120054908600549C1F8BC011CBD00006A
:10022000000C014000080140888121420000214269
:1002300000B5A3B0802103A8FFF77DFF20A103A88C
:1002400000F068FD03A800F03FFD4FF47A7000F065
:1002500067FE04200D211EA320A2CDE9001023A1DA
:1002600003A800F057FD03A800F02EFD4FF47A70AC
:1002700000F056FE25A229A103A800F04BFD03A81B
:1002800000F022FD4FF47A7000F04AFE28A103A886
:1002900000F040FD03A800F017FD4FF47A7000F065
:1002A0003FFE41F6987226A103A800F033FD03A893
:1002B00000F00AFD4FF47A7000F032FE23B000BD6A
:1002C00041542B43574D4F44453D320D0A00000029
:1002D000647879743230303230392E004553505FB3
:1002E00068756D69643163680000000041542B43F8
:1002F000575341505F4445463D222573222C222509
:1003000073222C25642C25640D0A00003139322E0D
:100310003136382E392E31343800000041542B4309
:10032000495041505F4445463D222573220D0A0045
:1003300041542B4349504D55583D310D0A000000A2
:1003400041542B4349505345525645523D312C257B
:10035000640D0A002DE9F041024600250026002028
:1003600000230024002791F803C00CF00F0591F83A
:1003700003C00CF0100CBCF1000F03D091F802C0C8
:100380004CEA050591F800C0BCF1000F31D01468AB
:1003900000202BE04FF0010C0CFA00F3B1F800C084
:1003A0000CEA03069E4220D183004FF00F0C0CFA9A
:1003B00003F7BC4305FA03FC4CEA040491F803C0BC
:1003C000BCF1280F06D14FF0010C0CFA00FCC2F86A
:1003D00014C00AE091F803C0BCF1480F05D14FF0FA
:1003E000010C0CFA00FCC2F810C0401C0828D1D344
:1003F0001460B1F800C0BCF1FF0F34DD5468002078
:100400002EE000F1080C4FF0010808FA0CF3B1F8E7
:1004100000C00CEA03069E4221D183004FF00F0C6E
:100420000CFA03F7BC4305FA03FC4CEA040491F808
:1004300003C0BCF1280F05D100F1080C08FA0CF834
:10044000C2F8148091F803C0BCF1480F07D100F145
:10045000080C4FF0010808FA0CF8C2F81080401C94
:100460000828CED35460BDE8F0810146C86880B248
:100470007047C160704700BFFEE7000038B501213A
:10048000042000F089F8FF20ADF8000010208DF85E
:10049000030003208DF8020069460648FFF75AFF63
:1004A0000448FFF7E2FF0446E4B221460148FFF7A3
:1004B000E0FF38BD000801402DE9F04107460D4638
:1004C00016463846FFF7D1FF0446012E02D1E4B2AA
:1004D00044EA052416B904F47F442C4321463846E7
:1004E000FFF7C7FFBDE8F08100BFFEE770470000DF
:1004F00070B5002100230F22C47804B3154C246882
:1005000004F4E064C4F5E064210AC1F10403CA40C4
:10051000447804FA03F184781440214309010E4C15
:100520000678A155047804F01F050124AC40057835
:100530006D11AD0005F1E025C5F8004109E0047832
:1005400004F01F050124AC40044D0678761145F8EF
:10055000264070BD0CED00E000E400E080E100E02A
:1005600002490143024A1160704700000000FA0589
:100570000CED00E07047000029B1064AD269024341
:10058000044BDA6104E0034AD2698243014BDA6129
:10059000704700000010024029B1064A92690243E8
:1005A000044B9A6104E0034A92698243014B9A61C9
:1005B000704700000010024030B5002100220024E6
:1005C00000232D4D6D6805F00C0121B1042905D0E3
:1005D000082923D105E0294D056022E0274D05605B
:1005E0001FE0254D6D6805F47012234D6D6805F40C
:1005F0008034022505EB92421CB9214D554305601C
:100600000BE01D4D6D6805F400351DB11C4D5543C3
:10061000056002E0194D5543056002E0174D056085
:1006200000BF00BF144D6D6805F0F0010909154DBC
:100630006B5C0568DD4045600F4D6D6805F4E06159
:10064000090A104D6B5C4568DD4085600A4D6D6898
:1006500005F46051C90A0B4D6B5C4568DD40C5600F
:10066000054D6D6805F44041890B074D6B5CC5680D
:10067000B5FBF3F5056130BD0010024000127A00B1
:1006800000093D000A0000201A000020704710B544
:1006900000F002F810BD00000CB5002001900090A1
:1006A0003348006840F480303149086000BF30486A
:1006B000006800F4003000900198401C0190009800
:1006C00018B90198B0F5A06FF1D12948006800F47D
:1006D000003010B10120009001E00020009000984F
:1006E000012843D12348006840F0100021490860E8
:1006F0000846006820F0030008600846006840F0E3
:10070000020008601A484068194948600846406875
:1007100048600846406840F4806048600846406889
:1007200020F47C1048600846406840F4E8104860B7
:100730000846006840F08070086000BF0C48006800
:1007400000F000700028F9D00948406820F003004C
:10075000074948600846406840F00200486000BF12
:100760000348406800F00C000828F9D10CBD0000D7
:100770000010024000200240042808D14FF0E02180
:10078000096941F004014FF0E022116107E04FF0E8
:10079000E021096921F004014FF0E0221161704766
:1007A0007047000010B504466FF00400FFF7E4FF47
:1007B000E11704EB5171C1F3C701074A11701046EC
:1007C000007800EB4001C1EBC0104FF6FF7101EA69
:1007D000C0000249088010BD06000020080000206B
:1007E00010B51348006840F0010011490860084640
:1007F0004068104908400E494860084600680E49A4
:1008000008400B4908600846006820F48020086012
:100810000846406820F4FE0048604FF41F008860DE
:10082000FFF735FF4FF000600449086010BD00007D
:10083000001002400000FFF8FFFFF6FE08ED00E0A8
:1008400010B540F22551204800F076F9012835D145
:100850001D4800F02DFA04461C48008800F40040B2
:1008600058BB1A48008800F4804060B10A2C03D0BD
:1008700000201649088020E01448008840F4004019
:100880001249088019E00D2C06D11048008840F468
:1008900080400E49088010E00C490988C1F30D0121
:1008A0000B4A545409480088401C084908800846EF
:1008B00000887F2801DD0020088000BF40F225511C
:1008C000014800F011F910BD00380140040000207B
:1008D000A400002010B588B00446B4F5165F01D915
:1008E0004FF4E134B4F5165F01D24FF416540121F0
:1008F0008803FFF751FE01210420FFF74DFE4FF45E
:100900000070ADF81C0018208DF81F0003208DF832
:100910001E0007A91D48FFF71DFD4FF48060ADF8CC
:10092000180004208DF81B0003208DF81A0006A97A
:100930001648FFF70FFD02940020ADF80C00ADF84B
:100940000E00ADF81000ADF814000C20ADF8120048
:1009500002A90F4800F040F9012240F225510C484D
:1009600000F014F925208DF8040001208DF807000F
:1009700002208DF805008DF8060001A8FFF7B8FDEC
:100980000121034800F0BFF808B010BD0008014085
:100990000038014010B540F22551204800F0CCF855
:1009A000012835D11D4800F083F904461C48008811
:1009B00000F4004058BB1A48008800F4804060B141
:1009C0000A2C03D000201649088020E01448008833
:1009D00040F400401249088019E00D2C06D110485F
:1009E000008840F480400E49088010E00C490988D6
:1009F000C1F30D010B4A545409480088401C0849B2
:100A00000880084600887F2801DD0020088000BF9C
:100A100040F22551014800F067F810BD0048004041
:100A2000020000202400002010B588B00446B4F570
:100A3000165F01D94FF4E134B4F5165F01D24FF4DB
:100A4000165401218804FFF797FD01210820FFF7C4
:100A5000A3FD4FF48060ADF81C0018208DF81F0036
:100A600003208DF81E0007A91D48FFF773FC4FF403
:100A70000060ADF8180004208DF81B0003208DF8ED
:100A80001A0006A91648FFF765FC02940020ADF88D
:100A90000C00ADF80E00ADF81000ADF814000C20FD
:100AA000ADF8120002A90F4800F096F8012240F2BA
:100AB00025510C4800F06AF827208DF80400012029
:100AC0008DF8070002208DF805008DF8060001A8BA
:100AD000FFF70EFD0121034800F015F808B010BD26
:100AE000000C01400048004010B50022002340F6F1
:100AF0006A14A14200D100BF0A1201249440A3B29B
:100B0000DC43048010BD21B1828942F4005282810D
:100B100004E082894DF6FF731A40828170470246D5
:100B20000020B1F5007F00D100BF13880B400BB14E
:100B3000012000E00020704770B502460024002329
:100B40000025002040F66A16B14200D100BFC1F373
:100B5000421501F01F03012606FA03F3012D02D10D
:100B60009689334006E0022D02D1168A334001E017
:100B7000968A33400C12012606FA04F41688344093
:100B800013B10CB1012000E0002070BDF0B50346A8
:100B9000002400260025002040F66A17B94200D143
:100BA00000BF1846C1F3421401F01F06012707FADF
:100BB00006F5012C01D10C3004E0022C01D11030DB
:100BC00000E014301AB107682F43076002E007689D
:100BD000AF430760F0BD00002DE9F04786B0054641
:100BE0000E460024A24600BFA1460027B08900B1EE
:100BF00000BF2F462C8A4CF6FF700440F088044357
:100C00002C82AC894EF6F3100440B0883189084339
:100C1000718908430443AC81AC8A4FF6FF4004401D
:100C2000B0890443AC8201A8FFF7C6FC1F48874285
:100C300002D1DDF810A001E0DDF80CA0A88900F4D5
:100C4000004040B10AEBCA0000EB0A1031684900CD
:100C5000B0FBF1F807E00AEBCA0000EB0A103168BC
:100C60008900B0FBF1F86420B8FBF0F00401200922
:100C7000642101FB1089A88900F4004040B13220B2
:100C800000EBC900B0FBF1F000F00700044308E0FE
:100C9000322000EB09106421B0FBF1F000F00F00EE
:100CA00004432C8106B0BDE8F08700000038014005
:100CB00001468888C0F308007047C1F308028280AB
:100CC000704700BFFEE7000010B504460320074947
:100CD0000870214606A000F00DF8012003490870B5
:100CE000214603A000F006F810BD0000000000201F
:100CF000257300000FB4054B10B503A9044A0298F0
:100D000000F02CF810BC5DF814FB0000750F000813
:100D1000200000200FB4084B10B504A902AA0398C4
:100D200000F01CF8044602A9002000F0F3F8204669
:100D300010BC5DF814FB0000150F000802E008C8A5
:100D4000121F08C1002AFAD170477047002001E045
:100D500001C1121F002AFBD1704700002DE9FF4F8F
:100D60008BB09A460F460546002606E025280BD094
:100D700052460D9990476D1C761C28780028F5D1B5
:100D80000FB03046BDE8F08F0024A0460122604934
:100D900000E0044315F8013F203B02FA03F008424B
:100DA000F7D128782E2817D115F8010F44F0040444
:100DB0002A280ED06FF02F022878A0F130010929DF
:100DC0000AD808EB880102EB410100EB01086D1C19
:100DD000F2E757F8048B6D1C287869283ED006DCB2
:100DE0000028CDD063280BD0642804D136E07328C6
:100DF00010D075284BD052460D999047761C85E04F
:100E000017F8040B8DF8000000208DF80100E9466A
:100E1000012003E057F8049B4FF0FF3061074FF0CB
:100E2000000401D40AE0641C44450DDA8442FADB74
:100E300019F804100029F6D106E0641C8442FCDB9A
:100E400019F804100029F8D1264404E019F8010B20
:100E500052460D999047641EF8D257E001CF4FF0EB
:100E60000A0B002802DA40422D2102E0210504D5B8
:100E70002B218DF82410012103E0E10705D020216A
:100E8000F7E70DF1200908910CE00021F9E701CF07
:100E90004FF00A0BF9E75946FFF76AF901F1300202
:100EA00009F8012D0028F6D1ADEB090000F1200B67
:100EB000600701D44FF00108D84502DDA8EB0B0014
:100EC00000E000208046002406E009A85246005DAC
:100ED0000D999047641C761C08988442F5DB04E069
:100EE000302052460D999047761CB8F10001A8F1C8
:100EF0000108F5DC05E019F8010B52460D99904701
:100F0000761CBBF10001ABF1010BF4DC6D1C34E786
:100F1000092801000A68531C0B601070704700001C
:100F2000014640F24472914200DD1146104A128897
:100F30004A434FF0E0235A6100229A611A4612692F
:100F400042F001021A61002000BF4FF0E022106958
:100F500000F001021AB100F48032002AF5D04FF0FF
:100F6000E022126900224FF0E0231A619A61704773
:100F70000800002070B504460D4617480078012887
:100F80000AD1A1B21548FFF798FE00BF802113488F
:100F9000FFF7C5FD0128F9D10F48007802280AD1D2
:100FA000A1B20F48FFF789FE00BF80210C48FFF770
:100FB000B6FD0128F9D10848007803280AD1A1B26A
:100FC0000848FFF77AFE00BF80210648FFF7A7FD1B
:100FD0000128F9D1204670BD0000002000380140F2
:100FE00000440040004800404820FFF7DBFB4FF47E
:100FF000A060FFF7B5FAFFF741FA4FF4E130FFF7D1
:1010000069FC4FF4E130FFF70FFDFFF7DDF84FF417
:101010007A70FFF785FFFFF70BF947E000242448BB
:10102000008800F40040B0B1012022490870224934
:1010300022A0FFF75FFE1E480088C0F30D040020C9
:1010400004E000211C4A1154411C88B2A042F8DB84
:101050000020174908801E48008800F4004020B393
:101060001CA11E48FFF772F828B1002211461C4847
:10107000FFF722FA09E01BA11848FFF767F820B133
:101080000022FF211648FFF717FA11480088C0F325
:101090000D04002004E00021104A1154411C88B2C4
:1010A000A042F8DB00200A49088000BFB6E7000034
:1010B0000400002000000020A400002055534152ED
:1010C00054312073656E643A2025730D0A000000C8
:1010D000020000204C45445F4F4E000024000020D9
:1010E000000801404C45445F4F4646000C11000883
:1010F00000000020240000003C0D00083011000812
:1011000024000020040500004C0D00080000000031
:1011100000000000000000000000010203040102C2
:101120000304060708090204060800000000000086
:04000005080000ED02
:00000001FF
