:1005670010350102030405060708090A0B0C0D0ED6
:100577000F101819FF074CFF0753FF075AFF0761B2
:10058700FF0768FF076FFF0776FF077D11463F06E6
:100597005B4F666D7D077F6F777C395E79710004ED
:1005A7003100000000010AFF040B000000000108F1
:1005B700FF0145000A0F00000000000000000000D6
:0305C7000109FF28
:0A0725002559F8E62446F8E6F580B1
:09072F00007F027EC7DEFEDFFC44
:01073800229E
:10073900AD07AC06ED1D70011C144C600512072FA6
:0307490080F22219
:10036600E4F557F558E509F460051206A680031270
:1003760005CB1204E68F5712066E8F58E55714B454
:100386001000400302041B90039B75F003A4C58371
:1003960025F0C583730203CB0203CF0203D3020306
:1003A600F60203D70203DB0203DF0203FB0203E3C9
:1003B6000203E70203EB02041B02041B0203EF0223
:1003C600041B02040C7F0780227F08801E7F0980A1
:1003D6001A7F0480167F0580127F06800E7F0180BB
:1003E6000A7F0280067F038002E4FF1206D9802579
:1003F6001207098020750AFF7508FF7509FFE4F5E5
:100406004575A0FF800F75A07F120003750AFF7562
:1004160008FFE4F545E508F4600302036BE558249C
:10042600FE601614601C1460222403600302036B32
:1004360075450175A0FE02036B75450275A0FD02A8
:10044600036B75450375A0DF02036B75450475A044
:04045600BF02036B73
:1004E600E4F559755AFF755BFF75900FE590640F3B
:1004F600606C7F0A7E00120739E590640F6051AF89
:1005060090EF24F5601024FE601114601324077028
:1005160012E4F55B800D755B018008755B02800354
:10052600755B037590F0AF90EF2450601124E06086
:100536001224F0601324707012E4F55A800D755A77
:10054600018008755A028003755A03E590B4F0FBE2
:10055600E55A25E025E02435255BF8E6F559AF593F
:010566002272
:10066E00E4FB30B10930B00630B20320B31B7F0279
:10067E007E0012073920B1027B0120B0027B0220DE
:10068E00B2027B0320B3027B0430B1FD30B0FA30EE
:07069E00B2F730B3F4AF0323
:0106A5002232
:1005CB00E4F559F559D3E50A6480F8E55964809848
:1005DB00501EE55975F003A42419F808E6FA08E64D
:1005EB00F91202927431120725855680055980D570
:1005FB00E4F559D3E5086480F8E559648098501EFA
:10060B00E55975F003A42425F808E6FA08E6F91273
:0E061B000292740B120725855680055980D572
:0106290022AE
:1006A600E4F559F559D3E5096480F8E5596480986D
:1006B6005020E55975F003A42419F808E6FA08E66F
:1006C600F9120292740F255912072785568005598B
:0206D60080D3CF
:0106D80022FF
:1006D900E509F460037509FFE5456011C3E50864A0
:1006E900809483501A0508740B2508800FC3E50A06
:1006F900648094835009050A7431250AF8A60722F3
:10000300E4F55CF55BF55AF559F560F55FF55EF5DA
:100013005DF564F563F562F561F568F567F566F519
:1000230065F569F56A7509FFF569D3E50A6480F832
:10003300E569648098503CAF5CAE5BAD5AAC59E463
:100043007B0AFAF9F812022D8F5C8E5B8D5A8C595C
:1000530074312569F8E6FFE4FCFDFEE55C2FF55CF1
:10006300EE355BF55BED355AF55AEC3559F5590527
:100073006980B7E4F569D3E5086480F8E5696480CD
:1000830098503CAF60AE5FAD5EAC5DE47B0AFAF9BD
:10009300F812022D8F608E5F8D5E8C5D740B256967
:1000A300F8E6FFE4FCFDFEE5602FF560EE355FF555
:1000B3005FED355EF55EEC355DF55D056980B7E5B1
:1000C30045700302015A24FE602714603F146051F7
:1000D30024036003020166E55C2560F564E55B3596
:1000E3005FF563E55A355EF562E559355DF5618087
:1000F30072C3E55C9560F564E55B955FF563E55A6E
:10010300955EF562E559955DF5618057AF60AE5F29
:10011300AD5EAC5DAB5CAA5BA95AA85912022D80F7
:1001230021AF60AE5FAD5EAC5DEC4D4E4F601DAB7D
:1001330060AA5FA95EA85DAF5CAE5BAD5AAC591215
:10014300062A8F648E638D628C618017E4F564F5F3
:1001530063F562F561800C855C64855B63855A6237
:10016300855961E4FFFEFDFCAB64AA63A962A86143
:10017300D312027C5013E4F564F563F562F561056F
:1001830009740F2509F8E4F622AF64AE63AD62ACDF
:1001930061EC4D4E4F603DE47B0AFAF9F812062AF2
:1001A300AC00AD01AE02AF038F688E678D668C65C0
:1001B300AF64AE63AD62AC61E47B0AFAF9F8120690
:1001C3002A8F648E638D628C610509740F2509F88B
:1001D300A66880B5E4F56985096AC3E56A6480F8B1
:1001E300E5696480985042740F256AF8E6FF740F3E
:1001F3002569F8EF26F6740F256AF8E6FF740F25D4
:1002030069F8E6C39FFF740F256AF8A607740F25E4
:1002130069F8C000E6FF740F256AF8E6FEC3EF9E97
:09022300D000F60569156A80B1EE
:01022C0022AF
:10070900E545600CC3E50864809480400E15082215
:0C071900C3E50A648094804002150A22A7
:07074C00D2A4D2A3D2A22225
:07075300D2A4D2A3C2A2222E
:07075A00D2A4C2A3D2A22227
:07076100D2A4C2A3C2A22230
:07076800C2A4D2A3D2A22219
:07076F00C2A4D2A3C2A22222
:07077600C2A4C2A3D2A2221B
:07077D00C2A4C2A3C2A22224
:0300000002045A9D
:0C045A00787FE4F6D8FD75816A0204A1E9
:10022D00E88FF0A4CC8BF0A42CFCE98EF0A42CFC70
:10023D008AF0EDA42CFCEA8EF0A4CDA8F08BF0A4EE
:10024D002DCC3825F0FDE98FF0A42CCD35F0FCEB4D
:10025D008EF0A4FEA9F0EB8FF0A4CFC5F02ECD3912
:0F026D00FEE43CFCEAA42DCE35F0FDE43CFC227F
:10062A00C2D5E830E70FB2D5E4C39BFBE49AFAE4FB
:10063A0099F9E498F8EC30E717B2D512066012027D
:10064A00D4E4C39BFBE49AFAE499F9E498F88003AA
:10065A001202D430D50DE4C39FFFE49EFEE49DFD53
:04066A00E49CFC22EE
:10027C00EB9FF5F0EA9E42F0E99D42F0EC6480C8F9
:06028C0064809845F02299
:060292008A838982E473F7
:10046600020366E493A3F8E493A34003F68001F243
:1004760008DFF48029E493A3F85407240CC8C33397
:10048600C4540F4420C8834004F456800146F6DF66
:10049600E4800B0102040810204080900567E47E8A
:1004A600019360BCA3FF543F30E509541FFEE4935B
:1004B600A360010ECF54C025E060A840B8E493A322
:1004C600FAE493A3F8E493A3C8C582C8CAC583CA4D
:1004D600F0A3C8C582C8CAC583CADFE9DEE780BE05
:0105CA000030
:1002980075F008758200EF2FFFEE33FECD33CDCC1D
:1002A80033CCC58233C5829BED9AEC99E5829840A0
:1002B8000CF582EE9BFEED9AFDEC99FC0FD5F0D67D
:1002C800E4CEFBE4CDFAE4CCF9A88222B800C1B9A7
:1002D8000059BA002DEC8BF084CFCECDFCE5F0CBE5
:1002E800F97818EF2FFFEE33FEED33FDEC33FCEB1E
:1002F80033FB10D703994004EB99FB0FD8E5E4F9D9
:10030800FA227818EF2FFFEE33FEED33FDEC33FCC5
:10031800C933C910D7059BE99A4007EC9BFCE99AB9
:10032800F90FD8E0E4C9FAE4CCFB2275F010EF2FFE
:10033800FFEE33FEED33FDCC33CCC833C810D707FE
:100348009BEC9AE899400AED9BFDEC9AFCE899F839
:0E0358000FD5F0DAE4CDFBE4CCFAE4C8F922CC
:00000001FF
